:03000000020D4DA1
:0C0D4D00787FE4F6D8FD758170020D94EB
:10111D007B2562642D25626425257D7B25302E324D
:10112D0062642D25302E3262642D25302E3262649C
:10113D007D7B2562647D0D0A00C0F9A4B099928271
:07114D00F88090FFBFC68986
:1010E500074C373B170000000016357B32302D3298
:1010F50030257D7B32332D35302D30307D7B307D75
:1011050000012F00012300012500012B000126000D
:07111500014B00C109C10AF2
:08135200AF2612133D12135ADD
:0B135A000000007F0B7EBEDEFEDFFC0B
:011365002265
:1012F70075A0A0E4F58075A0807580FF75A0C07506
:0913070080FF75A0FF7580FF2234
:100CB30075A0C075800175A0FFE53490114693F5CA
:100CC3008012135A75A0C075800275A0FFE5319399
:100CD300F58012135A75A0C075800475A0FFE5292D
:100CE30093F58012135A75A0C075800875A0FFE5AF
:100CF3003393F58012135A75A0C075801075A0FF49
:100D0300E55393F58012135A75A0C075802075A022
:100D1300FFE52E93F58012135A75A0C075804075B8
:100D2300A0FFE53293F58012135A75A0C075808039
:100D330075A0FFE52893F58012135A75A0C075803E
:0A0D4300FF75A0FF7580FF02135A30
:0412C3007F057E0025
:1012C700EF1FAA0670011E4A600BE4FDEDC39408E8
:0512D70050EE0D80F750
:0112DC0022EF
:0212A500A90797
:1012A700E4FBC294E91392941212C3D294E9C313D4
:0C12B700F90BBB08ED7F057E000212C79A
:1012DD00E4FBC294ECC313FCD2943094034304801A
:0912ED001212C30BBB08EBAF04A5
:0112F60022D5
:1011EF00C200D2947F0C7E001212C7C2947F507E31
:1011FF00001212C7D2947F0A7E001212C7A29492D5
:06120F00001212C3A20050
:0112150022B6
:101055001211EF7FCC1212A57F441212A51211EFC7
:101065007FCC1212A57FBE1212A51212DD8F55126A
:1010750012DD8F56E555540FF557FCE4120136E4A1
:10108500FBFA7920783F12002612016A8F57E55640
:0B109500C454F0FFE555C4540F4FFF9A
:0110A000222D
:100F9D00D2A1D2A00000000000000000000000005F
:100FAD000000000000000000000000000000000034
:100FBD000000000000000000000000000000000024
:100FCD0000C2A100000000000000000000000000B1
:100FDD000000000000000000000000000000000004
:100FED0000000000000000000000000000000000F4
:030FFD00C2A0226D
:10118A00C2A1D2A000000000000000000000000080
:10119A000000000000000000000000000000000045
:1011AA000000000000000000000000000000000035
:0411BA0000D2A1229C
:0B0C1100120E50120DE4120EC3C200C0
:100C1C00300004C2A18002D2A1000000000000003C
:100C2C0000000000000000000000000000000000B8
:100C3C0000000000000000000000000000000000A8
:100C4C00000000000000D2A0000000000000000026
:100C5C000000000000000000000000000000000088
:100C6C000000000000000000000000000000000078
:100C7C000000000000C2A0D2A10000000000000093
:100C8C000000000000000000000000000000000058
:100C9C000000000000000000000000000000000048
:070CAC00000000000000221F
:0B0DD900120E50120DE4AF05120E5078
:100DE400D2A100000000000000000000000000008C
:100DF40000000000000000000000000000000000EF
:100E0400000000000000000000000000000000D20C
:100E1400A00000000000000000000000000000002E
:100E240000000000000000000000000000000000BE
:100E3400000000000000000000000000000030A1DD
:0C0E440007C2A012118AC322C2A0D32250
:100E5000E4FEEF30E704D2A18002C2A1000000004E
:100E60000000000000000000000000000000000082
:100E70000000000000000000000000000000000072
:100E8000000000000000000000D2A0EF25E0FF00FD
:100E90000000000000000000000000000000000052
:100EA0000000000000000000000000000000000042
:100EB000000000000000000000000000C2A00EBE04
:020EC000089098
:010EC200220D
:100EC300E4FED2A0000000000000000000000000CB
:100ED300000000000000000000000000000000000F
:100EE30000000000000000000000000000000000FF
:100EF30000EF25E0FF30A103430701C2A00000007B
:100F030000000000000000000000000000000000DE
:100F130000000000000000000000000000000000CE
:0E0F2300000000000000000000000EBE089458
:010F3100229D
:02132700AD0710
:10132900120F9D7F90120DD9120F9D7F91120C11F2
:0313390012118A04
:01133C00228E
:10133D00AC07120F9D7FA0120E50120DE4AF0412D8
:05134D000DD902118A18
:0A00030012135A12135A0526AF26F5
:02000D00AD073D
:10000F00120F9D7FA0120DD9120F9D7FA1120C11FF
:03001F0012118A31
:0100220022BB
:10136600E4FEC297EF1392A3EFC313FFD2970EBE0C
:0213760008F07D
:011378002252
:10123D00C29300C29700D29300121366ED75F00AA7
:10124D0084C454F0FFED75F00A84E5F04FFF1213DE
:04125D0066C29322B0
:1010A100E4FDC29300C29700D29300121366E4FFDD
:1010B100C297EDC313FD30A303430580D2970FBF41
:1010C10008EEC29300C293C29700D29700C2A30058
:1010D100D2A300EDC4540FFFED540FFEEF75F00ADB
:0310E100A42EFF3B
:0110E40022E9
:101261007C80E4FBFD7F8E12123DAF04744C2BF8A1
:10127100E6FD12123D0C0C0BBB07EF7D807F8E0249
:02128100123D1C
:101283007C81E4FBFD7F8E12123DAF041210A1742A
:101293004C2BF8A6070C0C0BBB07EF7D807F8E024F
:0212A300123DFA
:1011540020B21A12135A20B21430B2FDE5237005DE
:101164007523018008E523B40103E4F52320B315B6
:1011740012135A20B30F30B3FD0525E525C394039C
:061184004003E4F5252202
:0611BE008B558A5689578B
:1011C400E4FFAB55AA56A957AE070F8E827583006C
:1011D40012053EF5993099FDC299AB55AA56A95707
:0A11E4008F8275830012053E70D85B
:0111EE0022DE
:10131000759850438E40538EFE53890FE4F58B75BC
:071320008DF7C2ABD28E2253
:03002300020F3297
:100F3200C0E0C0D0C298859930E52F700BE53064CF
:100F4200417053752F01804EE52FB4010BE53064DB
:100F5200417043752F02803EE52FB4020BE53064E9
:100F6200417033752F03802EE52FB4030BE53064F7
:100F7200537023752F04801EE52FB4040AE530B4A4
:100F82005314752F05800FE52FB4050AE530B453CD
:0B0F920005752F00D209D0D0D0E0324E
:100A3000E527C394C84058E4F52B75A080300A60C0
:100A4000C20A854C2CE52CD3952A4008E52C952A22
:100A5000F5548007C3E52A952CF554AD24121352A2
:100A60000526AD221213520526AD4E12135205264D
:100A7000AD4D1213520526AD4C1213520526AD543E
:100A80001213520526E526B42316E4F526801175C7
:100A90002B0175A0805380FB200A05D20A854C2AC1
:100AA000E525702FE52475F00A84F534E52475F00A
:100AB0000A8485F03175290C75330A75530AE522CD
:100AC00075F00A84F52EE52275F00A8485F03275FA
:100AD000280D22E52564017034E54E75F00A84F591
:100AE00034E54E75F00A8485F03175290BE54D75B6
:100AF000F00A84F533E54D75F00A8485F053752EC0
:100B00000BE54C75F00A84F532E54C803FE5256431
:100B1000027040E52BB4011675340A75310A752947
:100B20000A75330BE4F553F52EF532F52822E52B43
:100B3000702175340A75310A75290A75330BF5531E
:100B4000F52EE55475F00A84F532E55475F00A8403
:040B500085F02822E2
:100B5400E523704575A0805380FEE52D654C700338
:100B6400020C10854C2D200903020C107558FF75DA
:100B74005911755A1D85245B85225C854E5D854D12
:100B84005E854C5F852B607B007A00793512061DEB
:100B94007B007A0079350211BEE5236401706D751E
:100BA400A0805380FD300964C209F526F54BAF26B9
:100BB40012000D8F241200038F221200038F4E1295
:100BC40000038F4D1200038F4C1200038F54121335
:100BD4005A12135A05267558FF755911755A1D85F1
:100BE400245B85225C854E5D854D5E854C5F855416
:100BF400607B007A00793512061D7B007A00793516
:0D0C04001211BE054BE54BD3940540A22212
:10100000D2AFD2AC1212F712131012126112105595
:101010008F247F031213278F227F031213278F221F
:101020007F011213278F277F011213278F27121298
:1010300083121154AC22E41201367B147AAE79C7C4
:10104000783E12002612016A8F22120A30120B54C7
:05105000120CB380B892
:10002600EC4D6011E8497017ED33EC3304600DE4D4
:10003600FCFFFEFD22E933E8330470F80201D61214
:1000460001A158046009E4CC248150062850090215
:1000560001E02840030201DDC0E0EB4A7044B980AC
:1000660006D0E0FB0201CCEF4E701CBD8008EBFF12
:10007600EAFEE9FD80EBE98DF0A4FEE5F002010F52
:10008600E9CDF9EAFEEBFFEF89F0A4FCE5F0CE89B5
:10009600F0A42EFFE435F0CD89F0A42DFEE435F072
:1000A6008067EF4E7005BD80D780C3EF8BF0A4ACA0
:1000B600F0EE8BF0A42CFCE435F0F8EF8AF0A42CDB
:1000C600E5F038FCE433CB8DF0A42CFCE5F03BF8EE
:1000D600EE8AF0A42CFCE5F038F8E433CF89F0A4DE
:1000E6002CFCE5F038CF3400CE89F0A42FFFE5F0E4
:1000F6003EFEE433C98DF0A42EFEE5F039CD8AF03C
:10010600A42FFFE5F03EFEE43DFD33D0E0FB5007B3
:100116000BBB000F0201E0EC2CFCEF33FFEE33FECD
:06012600ED33FD0201B8FB
:10012C0075F020800E75F010800575F0087D007E4E
:10013C00007F003392D530D50312057DEC3340108F
:10014C00EF33FFEE33FEED33FDEC33FCD5F0ED2257
:0E015C00E5F0247EA2D513CC92E7CDCEFF2293
:10016A00EDD2E7CD33EC3392D524814006E4FFFE8D
:10017A00FDFC22FCE4CFCECDCC24E0501174FF80EC
:10018A00EDC3CC13CCCD13CDCE13CECF13CF047089
:07019A00F030D5DE02057D07
:1005C100E56C2458F8E6056C227855300702785816
:1005D100E475F00112058B0205252000EB7F2ED278
:1005E100008018EF540F2490D43440D4FF30040B12
:1005F100EF24BFB41A0050032461FFE56D600215BA
:100601006D0570E5707002056F30070D7855E47562
:10061100F00112058BEF02056B0212167403D2076B
:100621008003E4C207F56C8B558A568957E4F56D52
:10063100F56FF570E56D60077F201205FC80F5759B
:100641006EFFC201C200C202C203C205C206C208D5
:100651001205CAFF700D3007057F0012060DAF703D
:10066100AE6F22B4255FC2D5C2041205CAFF24D0E1
:10067100B40A00501A75F00A786D30D50508B6FF36
:100681000106C6A426F620D5047002D20380D9241F
:10069100CFB41A00EF5004C2E5D2040208FAD20125
:1006A10080C6D20080C0D20280BCD2D580BAD20529
:1006B10080B47F201205FC2002077401B56D004053
:1006C100F11205C1FF1205FC020635D208D20680DF
:1006D100951205C1FB1205C1FA1205C1F94A4B7009
:1006E1000679F17A097BFF20022EE56D602A7E00F2
:1006F1008E8275830012053E60060EEE656E70F007
:10070100C2D5EBC0E0EAC0E0E9C0E0EE12095AD080
:10071100E0F9D0E0FAD0E0FB120525FF60AAEBC0BA
:10072100E0EAC0E0E9C0E01205FCD0E02401F9D024
:10073100E03400FAD0E0FBE56E0460DCD56ED980D0
:1007410087D20280A212093D60F7E56E70010412A2
:1007510001EBA96E600DE56E600914F56E1209E4F6
:10076100EF60F3EA30E702F404C3995077EAF42525
:100771006E0430E701E404F56E800D12093D60C19D
:10078100EA056E256E1201EBEA786BF630E701E4BB
:10079100256E04D56E042005011412095AE4C0E047
:1007A1001209E4786BE6601320E70714F61205E4FA
:1007B100802204F6D0E014C0E07F001205E4E56E6B
:1007C10060071205DB156E800B3005031205DBD0C7
:1007D100E0020635D0E00480C512093D60A0E56E57
:1007E100041201EB786BEAF6E56E20050260010464
:0507F100240412095A66
:1007F60074FF04C0E01209E41205E4E56E20050268
:1008060060031205DBD0E0B56EE87F451205EE7891
:100816006BE67F2B30E7047F2DF404C0E01205FC65
:10082600D0E075F00A84C0F01205E5D0E01205E5C7
:10083600020635791080027908C206C2088008D2FD
:10084600D5790A8004790AC2D5E56E047002F56E80
:10085600E4FAFDFEFF1205C1FC7B08200113120518
:10086600C1FD7B1030000A1205C1FE1205C1FF7BD7
:1008760020EC3382D592D55013C3E43000069FFF97
:10088600E49EFEE42001039DFDE49CFCE4CBF8C25B
:1008960001EC700CCFCECDCCE824F8F870F38017BD
:1008A600C3EF33FFEE33FEED33FDEC33FCEB33FBEE
:1008B600994002FB0FD8E9EB300105F8D0E0C448B7
:1008C600B201C0E00AEC4D4E4F78207B0070C2EAC0
:1008D600B56E0040BCC0E012095CD0F0D0E020014B
:1008E60004C4C0E0C4B201C0F01205E5D0F0D5F0F2
:1008F600EB02063512059B06D25308395806A34C5F
:10090600069F42083D4F08454408454906B8430836
:100916004B55077C4607DA450746470A115006A796
:100926002D06AB2E06CE2B06AF2306CC2009FA2ABF
:10093600066748000006C6E56EB4FF03756E06122C
:1009460005C1FC1205C1FD1205C1FE1205C1FF78E5
:100956006402021A790AA2D5200314300509B910D7
:10096600020404B9080104A2D5200602500104209D
:1009760002689202B56D005034C0E07F2030031942
:100986007F30A20272067205500F1209B3C202C26C
:1009960006C205C2087F30800F300503E9C0E012A9
:1009A60005FC300503D0E0F9D0E0B56DCC30051775
:1009B6007F30B9100C1205FC7F583004077F788011
:1009C60003B908031205FC3002057F2D0205FC7FE2
:1009D600202008F87F2B2006F322920280CF7F008A
:1009E600B4070050052464F8E6FF22286E756C6C87
:1009F6002900D2011205C13001F8C201786D30D547
:100A06000108F60206672D504349581205C1240312
:100A1600B405004001E4900A0C931205ED743A12F5
:0A0A260005EDD203756D04020839D6
:1001A100E9D2E7C933E833F892D5EDD2E7CD33ECA4
:0701B10033FC5002B2D5221D
:1001B800EC30E7100FBF000C0EBE00080DBD0004A8
:1001C8000BEB6014A2D5EB13FCED92E7FD2274FF54
:1001D800FCFDFEFF22E480F8A2D574FF13FC7D80AD
:0301E800E480EFC1
:1001EB00F920E72824F950037907E4F42402FB18DB
:1001FB00DBFDE624FB5014E9600DE4F618E604F68B
:0F020B00B40A08E4F6D9F57401F60A22C2D52226
:10021A00ED33EC3392D5FA602AB4FF33EDC2E77BB3
:10022A00FF60067A02793FE4227A02794820D504EF
:10023A007A027943224E614E002B494E46002D49DF
:10024A004E4600E47A08F608DAFC7B00740722E8D6
:10025A00C0E0ECC0E0EDC0E0EEC0E0EFC0E0EA755F
:10026A00F010A4CAABF075F04DA42BFBE435F0FCFA
:10027A00EA2410FAEB34C5FBEC34D9FCEDC2E7FFF3
:10028A0075F056A4F42411C5F0F434C58FF0A42AED
:10029A00E5F03BE43CF620E7141204E5D0E0FFD099
:1002AA00E0FED0E0FDD0E0FC1204188014F4041241
:1002BA0004E5D0E0FFD0E0FED0E0FDD0E0FC120083
:1002CA0026D0E0F8E6FAEDD2E7CD33EC332482FB10
:1002DA00E4C3CF33CFCE33CECD33CD33DBF37B077D
:1002EA0075F00A846004F6081B0AE5F0F6088FF038
:1002FA00740AA4FFACF08EF0740AA42CFEACF05081
:10030A00010C8DF0740AA42CFDE435F0F608DBDE4E
:03031A0074072243
:10031D000201D6E86480F8E933E83360110460F037
:10032D00ED33EC337009E8FCE9FDEAFEEBFF220446
:10033D0060DED3EB9FEA9EE99DE8C2E78CF0C2F741
:10034D0095F0400CE8CCF8E9CDF9EACEFAEBCFFB0D
:10035D001201A185D0F05804700320D5B3E80470C4
:10036D00075002B2D50201E092D5EC0460F7E4CC5F
:10037D00C0E0C398F8603B94186008400DD0E0FBD6
:10038D000201B8E4FBFAC9FC8028E830E406E4C9B0
:10039D00FBE4CAFCE830E305E4C9CACBFCE854072A
:1003AD006010F8C3E913F9EA13FAEB13FBEC13FC35
:1003BD00D8F130F52FC3E49CFCEF9BFFEE9AFEEDD8
:1003CD0099FDD0E0FBEF4E4D4C701222DB03020184
:1003DD00DDEC2CFCEF33FFEE33FEED33FDED30E7BE
:1003ED00EB0201B8EF2BFFEE3AFEED39FDD0E0FB4D
:1003FD0050130BBB00030201E0ED13FDEE13FEEFF6
:08040D0013FFEC13FC0201B81F
:100415000201E0EC5D046005E8590470030201D6B1
:100425001201A1580460F6EC4860F2EC7004FDFE80
:10043500FF22C860DB2481C85009C39860025006BA
:100445000201DD9850CAF582E9294B4A7005AB8255
:100455000201CC75F0007C1A7880C3EF9BEE9AED13
:1004650099400DC3EF9BFFEE9AFEED99FDE842F032
:10047500DC23ACF0D0E0FFD0E0FED0E0FDAB822085
:10048500E7101BEB60BAEC2CFCEF33FFEE33FEED0F
:1004950033FD0201B8E803F830E705C0F075F00058
:1004A500EF2FFFEE33FEED33FD40B830E7C280AAF3
:1004B5003F8000004120000042C80000447A00004F
:1004C500461C400047C35000497424004B189680D1
:1004D5004CBEBC205A0E1BCA6753C21C749DC5AEC8
:1004E500FB60065407601C2323120513EB54386088
:1004F500091204FF12050E120026ECF8EDF9EEFACA
:10050500EFCB22EB12050E80F1543803241C900426
:10051500B5FE93FC0EEE93FD0EEE930ECE93FF22E9
:100D5900021000E493A3F8E493A34003F68001F2A0
:100D690008DFF48029E493A3F85407240CC8C3339B
:100D7900C4540F4420C8834004F456800146F6DF6A
:100D8900E4800B01020408102040809010E5E47E05
:100D9900019360BCA3FF543F30E509541FFEE4935F
:100DA900A360010ECF54C025E060A840B8E493A326
:100DB900FAE493A3F8E493A3C8C582C8CAC583CA51
:100DC900F0A3C8C582C8CAC583CADFE9DEE780BE09
:01111C0000D2
:10052500BB010689828A83E0225002E722BBFE02D4
:09053500E32289828A83E4932207
:10053E00BB010CE58229F582E5833AF583E0225072
:10054E0006E92582F8E622BBFE06E92582F8E222BC
:0D055E00E58229F582E5833AF583E49322D6
:10056B00BB010689828A83F0225002F722BBFE016F
:02057B00F32269
:0E057D00C3E49FFFE49EFEE49DFDE49CFC228F
:10058B00FAE6FB0808E6F925F0F618E6CA3AF62271
:10059B00D083D082F8E4937012740193700DA3A3EF
:1005AB0093F8740193F5828883E473740293686003
:0605BB00EFA3A3A380DF03
:10121600EFB40A07740D121221740A309811A899B6
:10122600B8130CC2983098FDA899C298B811F63038
:0712360099FDC299F5992210
:00000001FF
