:0A0B4800C0F9A4B0999282F88090E1
:100B1000E4FFC2B7C2B4FED2B7EF25E0FF30B503A1
:0B0B2000430701C2B70EBE08EED2B4BE
:010B2B0022A7
:03000B00020A28BE
:100A2800C0E0C0F0C083C082C0D075D000C000C094
:100A380001C002C003C004C005C006C007758A64AF
:100A4800758CED0508E508C3946440257508001207
:100A58000B10750A008F0BAC0AAD0BE412090B7B67
:100A6800487AE179FA783F1208001209448E0A8F11
:100A78000B7580FFE5091460251460472402706136
:100A8800AE0AAF0B7C007D0A1209C574482DF582A9
:100A9800740B3CF583E493F58075A0FE8043AE0AA1
:100AA800AF0B7C007D0A1209C57C007D0A1209C5BE
:100AB80074482DF582740B3CF583E493F58075A09A
:100AC800FD801EAE0AAF0B7C007D641209C5744818
:100AD8002FF582740B3EF583E493547FF58075A05F
:100AE800FB0509E509C394034003750900D007D045
:100AF80006D005D004D003D002D001D000D0D0D089
:080B080082D083D0F0D0E0326E
:100B2C00758901758A64758CECD2A9D2AFD28C22EE
:050B5200120B2C80FED7
:10080000EC4D6011E8497017ED33EC3304600DE4F2
:10081000FCFFFEFD22E933E8330470F80209B01250
:10082000097B58046009E4CC248150062850090251
:1008300009BA2840030209B7C0E0EB4A7044B98006
:1008400006D0E0FB0209A6EF4E701CBD8008EBFF4E
:10085000EAFEE9FD80EBE98DF0A4FEE5F00208E98F
:10086000E9CDF9EAFEEBFFEF89F0A4FCE5F0CE89D3
:10087000F0A42EFFE435F0CD89F0A42DFEE435F090
:100880008067EF4E7005BD80D780C3EF8BF0A4ACBE
:10089000F0EE8BF0A42CFCE435F0F8EF8AF0A42CF9
:1008A000E5F038FCE433CB8DF0A42CFCE5F03BF80C
:1008B000EE8AF0A42CFCE5F038F8E433CF89F0A4FC
:1008C0002CFCE5F038CF3400CE89F0A42FFFE5F002
:1008D0003EFEE433C98DF0A42EFEE5F039CD8AF05A
:1008E000A42FFFE5F03EFEE43DFD33D0E0FB5007D2
:1008F0000BBB000F0209BAEC2CFCEF33FFEE33FE0A
:06090000ED33FD02099237
:1009060075F020800E75F010800575F0087D007E6C
:10091600007F003392D530D503120A1AEC3340100B
:10092600EF33FFEE33FEED33FDEC33FCD5F0ED2275
:0E093600E5F0247EA2D513CC92E7CDCEFF22B1
:10094400EDD2E7CD33EC3392D524814006E4FFFEAB
:10095400FDFC22FCE4CFCECDCC24E0501174FF800A
:10096400EDC3CC13CCCD13CDCE13CECF13CF0470A7
:07097400F030D5DE020A1A83
:10097B00E9D2E7C933E833F892D5EDD2E7CD33ECC2
:07098B0033FC5002B2D5223B
:10099200EC30E7100FBF000C0EBE00080DBD0004C6
:1009A2000BEB6014A2D5EB13FCED92E7FD2274FF72
:1009B200FCFDFEFF22E480F8A2D574FF13FC7D80CB
:0309C200E480EFDF
:03000000020B3CB4
:0C0B3C00787FE4F6D8FD75810B020B52A7
:1009C500BC000BBE0029EF8DF084FFADF022E4CC16
:1009D500F875F008EF2FFFEE33FEEC33FCEE9DECDF
:1009E500984005FCEE9DFE0FD5F0E9E4CEFD22ED25
:1009F500F8F5F0EE8420D21CFEADF075F008EF2F6F
:100A0500FFED33FD4007985006D5F0F222C398FD5F
:050A15000FD5F0EA22FC
:0E0A1A00C3E49FFFE49EFEE49DFDE49CFC22ED
:00000001FF
