:10009B0001030206040C0809F9F8FCF4F6F2F3F17B
:0400AB007F647E00F0
:0B00AF00EF1FAC0670011E4C70F62223
:10000300C2A420A0091200AB20A003750801E508D3
:10001300B4010D30A00AE4F508750B01F50CF50DDC
:1000230020A1091200AB20A103750901E509B40160
:100033000D30A10AE4F509750C01F50BF50D20A2AD
:10004300091200AB20A203750A01E50AB4010D30C1
:0D005300A20AE4F50A750D01F50BF50C226B
:08006000EC93F5A07F647E0023
:10006800EF1FAA0670011E4A600BE4FDEDC3947DE4
:0500780050EE0D80F7C1
:01007D002260
:0C00BA00E4FC90009B1200600CBC08F6F7
:0100C6002217
:0C00C700E4FC9000A31200600CBC08F6E2
:0100D300220A
:10007E00120003E50BB401031200BAE50CB4010340
:0D008E001200C7E50DB401E875A00F80E376
:030000000200D427
:0C00D400787FE4F6D8FD75810D02007EF7
:00000001FF
