:0608F100010B64010CC8BC
:1008BB0075A21075D90AE4F5E9F5F9F5F275DA4286
:0E08CB00F5F375DB42F5F475DC4275D840227A
:03000B0002088C5C
:10088C00C0E0C0D0758CFC758A180508E508C394C7
:10089C0064400E050A748094814003750A00750843
:0F08AC0000850AFA850BFB850CFCD0D0D0E0321A
:1008D900758901758CFC758A18D2AFD2A9D28C2280
:0808E9001208D91208BB80FEC1
:03000000020800F3
:0C080000787FE4F6D8FD75810C020847F3
:10080C000208E9E493A3F8E493A34003F68001F211
:10081C0008DFF48029E493A3F85407240CC8C333ED
:10082C00C4540F4420C8834004F456800146F6DFBC
:10083C00E4800B01020408102040809008F1E47E53
:10084C00019360BCA3FF543F30E509541FFEE493B1
:10085C00A360010ECF54C025E060A840B8E493A378
:10086C00FAE493A3F8E493A3C8C582C8CAC583CAA3
:10087C00F0A3C8C582C8CAC583CADFE9DEE780BE5B
:0108F7000000
:00000001FF
