:1000EA00486F772061726520796F75006461743A90
:1000FA00323031322F30392F30310054696D653A40
:08010A0000202000456E640096
:0D01CF000B08303132333435363738390003
:100112001201AD7F507EC312012E7F507EC31201A9
:0C0122002E7F507EC312012E7F507EC342
:0B012E00EF1FAC0670011E4C70F622A3
:10018500C296C2978F80D2957F647E0012012EC2DF
:0401950095D2962247
:10019900C296D2978F80D2957F647E0012012EC2BB
:0401A90095D2962233
:0F01C0007F381201857F0F1201857F06020185AE
:0A01DD007F011201857F02020185F7
:1001AD00120157FF600C120199740129F9E43AFA12
:0301BD0080EE22AF
:10013900AD07ED75F00A842408F8E6FF120199ED80
:0E01490075F00A84740825F0F8E6FF020199AB
:10017000AE07BE0105ED24808006BE0207ED24C057
:05018000FF12018522C1
:10008F007514381201C01201DD1201DD7BFF7A00F9
:10009F0079EA1201ADE4FD7F021201707A0079F660
:1000AF001201121201DD7A0179051201ADAF14129E
:1000BF0001397A01790B1201ADAF13120139E4FD49
:1000CF007F021201707A01790E1201120513E513E6
:0B00DF00D3946440B4E4F513020098D1
:03000000020003F8
:0C000300787FE4F6D8FD75811402004AF5
:10015700BB010689828A83E0225002E722BBFE02A6
:09016700E32289828A83E49322D9
:10000F0002008FE493A3F8E493A34003F68001F278
:10001F0008DFF48029E493A3F85407240CC8C333F2
:10002F00C4540F4420C8834004F456800146F6DFC1
:10003F00E4800B01020408102040809001CFE47E81
:10004F00019360BCA3FF543F30E509541FFEE493B6
:10005F00A360010ECF54C025E060A840B8E493A37D
:10006F00FAE493A3F8E493A3C8C582C8CAC583CAA8
:10007F00F0A3C8C582C8CAC583CADFE9DEE780BE60
:0101DC000022
:00000001FF
