:030000000206995C
:0C069900787FE4F6D8FD7581390206E098
:0C0A7100C0F9A4B0999282F88090BFFFF9
:1009DD00013900012E00013500012A00012500C159
:0909ED0001C103C102C104C100F3
:1008E300D2A1D2A000000000000000000000000020
:1008F30000000000000000000000000000000000F5
:10090300000000000000000000000000C2A1000081
:1009130000000000000000000000000000000000D4
:1009230000000000000000000000000000000000C4
:09093300000000000000C2A02237
:10098C00C2A1D2A000000000000000000000000086
:10099C00000000000000000000000000000000004B
:0F09AC00000000000000000000000000D2A122A7
:0B0606001208151207B312087EC2058F
:10061100300504C2A18002D2A10000000000000048
:1006210000000000000000000000000000000000C9
:1006310000000000000000000000000000000000B9
:1006410000D2A00000000000000000000000000037
:100651000000000000000000000000000000000099
:100661000000000000000000000000C2A0D2A100B4
:100671000000000000000000000000000000000079
:100681000000000000000000000000000000000069
:0806910000000000000000223F
:0B07A8001208151207B3AF0512081568
:1007B300D2A10000000000000000000000000000C3
:1007C3000000000000000000000000000000000026
:1007D30000000000000000000000D2A000000000A4
:1007E3000000000000000000000000000000000006
:1007F30000000000000000000000000000000000F6
:100803000000000030A107C2A012098CC322C2A0BD
:02081300D322EE
:10081500E4FEEF30E704D2A18002C2A1000000008F
:1008250000000000000000000000000000000000C3
:1008350000000000000000000000000000000000B3
:1008450000000000D2A0EF25E0FF0000000000003E
:100855000000000000000000000000000000000093
:100865000000000000000000000000000000000083
:080875000000C2A00EBE089AAB
:01087D002258
:10087E00E4FED2A000000000000000000000000016
:10088E00000000000000000000000000000000005A
:10089E00000000000000000000000000EF25E0FF57
:1008AE0030A103430701C2A00000000000000000B9
:1008BE00000000000000000000000000000000002A
:1008CE00000000000000000000000000000000001A
:0408DE000EBE089EA4
:0108E20022F3
:020A1000AD0730
:100A12001208E37F901207A81208E37F91120606DC
:030A220012098C2A
:010A250022AE
:100A3C00AC071208E37FA01208151207B3AF04121B
:050A4C0007A802098C5F
:020A2600AD071A
:100A28001208E37FA01207A81208E37FA1120606A6
:030A380012098C14
:010A3B002298
:030A620093F58089
:0B0A65000000007F0B7EBEDEFEDFFC09
:010A70002263
:1003F0007F08D29000000000000000000000000014
:1004000000000000000000000000000000000000EC
:1004100000000000000000000000000000000000DC
:1004200000000000000000000000000000000000CC
:1004300000000000000000000000000000000000BC
:1004400000000000000000000000000000000000AC
:100450000000000000000000C2900000000000004A
:10046000000000000000000000000000000000008C
:10047000000000000000000000000000000000007C
:10048000000000000000000000000000000000006C
:10049000000000000000000000000000000000005C
:1004A000000000000000000000000000000000004C
:1004B0000000000000000000000000000000AE0787
:0704C0001FEE60030203F2CE
:0104C7002212
:100A5100438E805389F0758A9A758CA9C28DD28C88
:010A61002272
:07000300438E4053890F22D8
:03000B0002093CAB
:10093C00C0E0C0D0052E0522E52EC3946440057599
:10094C002E00D201E522C394FA4005B203752200B1
:10095C003004282000250523E523D394FA401C7588
:10096C0023000524E524D3940240101533E533D33A
:10097C0094005007753300C204C202D0D0D0E032CC
:10072500300153C2011203F0D28E208F032091FABB
:10073500C28E308F0AC28F7528037529E78032AFC4
:100745008DEF753700F536AF8BEF4237E4AC36AD3C
:10075500371201197B967A43798B783C12000E1279
:1007650001528E288F297C007D0C1201D38E288F93
:1007750029E4F58DF58B2004297F01120A268F27A0
:10078500120A657F02120A268F26D3E529941EE5F3
:100795002894005007752A0185273322752A02857A
:0307A500263322D6
:1009F70075A0A0E4F58075A0807580FF75A0C0750F
:090A070080FF75A0FF7580FF223D
:1005720075A0C075800175A0FFE532900A71120A5C
:100582006275A0C075800275A0FFE52F120A627520
:10059200A0C075800475A0FFE52C93F580120A6552
:1005A20075A0C075800875A0FFE53193F580120A29
:1005B2006575A0C075801075A0FFE53493F58012B3
:1005C2000A6575A0C075802075A0FFE52D93F580A2
:1005D200120A6575A0C075804075A0FFE53093F5DD
:1005E20080120A6575A0C075808075A0FFE52B9307
:1005F200F580120A6575A0C07580FF75A0FF758031
:04060200FF020A6584
:1004C80020B313120A6520B30D30B3FD200407E5ED
:1004D80035B40202D20420B218120A6520B21230D2
:1004E800B2FD30040C200004D2008005300002C2A6
:1004F8000020B141120A6520B13B30B1FDE53564F9
:10050800017032E52570087525018527218026E5CB
:1005180025B401087525028526388019E525B40219
:1005280014E4F525AD217F01120A3C120A65AD38A5
:100538007F02120A3C20B031120A6520B02B30B07D
:10054800FDE535B40123E525B4010D0521E521D3E9
:10055800940A4015E4F52122E525B4020C0538E596
:0A05680038D3940A4003E4F538226A
:10023600AC39E412011E7B777ABE791F783D120035
:100246000E1201528F39E539C394004013E53994F3
:1002560001500D753501C20275A0807580FE80388B
:10026600E539C394014014E539D39404500D75352E
:1002760002D20275A0807580FD801DE539D39404F5
:10028600401C753503C20275A0807580FB300308DB
:1002960075A0A0758040800675A0A0E4F580E535C0
:1002A600B4011FE525701B752B0B75300B752D0BD7
:1002B60075340B75310B752C0B752F0B75320B02C4
:1002C6000370E5356403704B200248E525704475DC
:1002D600320175300B752D0B752F0BAE28AF29FC2F
:1002E6007D641201D38F2CAE28AF297C007D641269
:1002F60001D37E007F0ACFCDCFCECCCE1201D38FD5
:1003060031AE28AF297C007D0A1201D38D34852AAF
:100316002B8057300254E5356402704EE525704A4D
:1003260030040875A0A0758010800675A0A0E4F5BD
:1003360080200002800B30030875A0807580F58050
:100346000675A0807580FD753202752D0B75340B10
:1003560075310B752C0B752F0BE53375F00A84F58B
:1003660030E53375F00A8485F02BE5256401703A93
:10037600753203752D0B752C0B752F0B300313E59A
:100386002175F00A84F531E52175F00A8485F0348B
:10039600800675340B75310BE53875F00A84F53037
:1003A600E53875F00A8485F02B22E525640270395C
:1003B600753203752D0B752C0B752F0B300313E55A
:1003C6003875F00A84F530E53875F00A8485F02B27
:1003D6008006752B0B75300BE52175F00A84F53117
:0A03E600E52175F00A8485F0342249
:1009BB001209F7120A51120003D2AFD2A97F031208
:1009CB000A108F391207251204C81202361205724B
:0209DB0080EBAF
:10000E00EC4D6011E8497017ED33EC3304600DE4EC
:10001E00FCFFFEFD22E933E8330470F80201BE1244
:10002E00018958046009E4CC248150062850090245
:10003E0001C82840030201C5C0E0EB4A7044B980F4
:10004E0006D0E0FB0201B4EF4E701CBD8008EBFF42
:10005E00EAFEE9FD80EBE98DF0A4FEE5F00200F783
:10006E00E9CDF9EAFEEBFFEF89F0A4FCE5F0CE89CD
:10007E00F0A42EFFE435F0CD89F0A42DFEE435F08A
:10008E008067EF4E7005BD80D780C3EF8BF0A4ACB8
:10009E00F0EE8BF0A42CFCE435F0F8EF8AF0A42CF3
:1000AE00E5F038FCE433CB8DF0A42CFCE5F03BF806
:1000BE00EE8AF0A42CFCE5F038F8E433CF89F0A4F6
:1000CE002CFCE5F038CF3400CE89F0A42FFFE5F0FC
:1000DE003EFEE433C98DF0A42EFEE5F039CD8AF054
:1000EE00A42FFFE5F03EFEE43DFD33D0E0FB5007CC
:1000FE000BBB000F0201C8EC2CFCEF33FFEE33FEFE
:06010E00ED33FD0201A02B
:1001140075F020800E75F010800575F0087D007E66
:10012400007F003392D530D503120228EC334010FF
:10013400EF33FFEE33FEED33FDEC33FCD5F0ED226F
:0E014400E5F0247EA2D513CC92E7CDCEFF22AB
:10015200EDD2E7CD33EC3392D524814006E4FFFEA5
:10016200FDFC22FCE4CFCECDCC24E0501174FF8004
:10017200EDC3CC13CCCD13CDCE13CECF13CF0470A1
:07018200F030D5DE02022877
:10018900E9D2E7C933E833F892D5EDD2E7CD33ECBC
:0701990033FC5002B2D52235
:1001A000EC30E7100FBF000C0EBE00080DBD0004C0
:1001B0000BEB6014A2D5EB13FCED92E7FD2274FF6C
:1001C000FCFDFEFF22E480F8A2D574FF13FC7D80C5
:0301D000E480EFD9
:1006A5000209BBE493A3F8E493A34003F68001F2A7
:1006B50008DFF48029E493A3F85407240CC8C33356
:1006C500C4540F4420C8834004F456800146F6DF25
:1006D500E4800B01020408102040809009DDE47ECF
:1006E500019360BCA3FF543F30E509541FFEE4931A
:1006F500A360010ECF54C025E060A840B8E493A3E1
:10070500FAE493A3F8E493A3C8C582C8CAC583CA0B
:10071500F0A3C8C582C8CAC583CADFE9DEE780BEC3
:0109F6000000
:1001D300BC000BBE0029EF8DF084FFADF022E4CC10
:1001E300F875F008EF2FFFEE33FEEC33FCEE9DECD9
:1001F300984005FCEE9DFE0FD5F0E9E4CEFD22ED1F
:10020300F8F5F0EE8420D21CFEADF075F008EF2F68
:10021300FFED33FD4007985006D5F0F222C398FD59
:050223000FD5F0EA22F6
:0E022800C3E49FFFE49EFEE49DFDE49CFC22E7
:00000001FF
