:1000990001030206040C0809F9F8FCF4F6F2F3F17D
:0400A9007F647E00F2
:0B00AD00EF1FAC0670011E4C70F62225
:100003002094091200A9209403750801E508B4019E
:100013000D30940AE4F508750B01F50CF50D2095E8
:10002300091200A9209503750901E509B4010D30F2
:10003300950AE4F509750C01F50BF50D20960912E7
:1000430000A9209603750A01E50AB4010D30960A4A
:0B005300E4F50A750D01F50BF50C2219
:08005E00EC93F5A07F647E0025
:10006600EF1FAA0670011E4A600BE4FDEDC3947DE6
:0500760050EE0D80F7C3
:01007B002262
:0C00B800E4FC90009912005E0CBC08F6FD
:0100C4002219
:0C00C500E4FC9000A112005E0CBC08F6E8
:0100D100220C
:10007C00120003E50BB401031200B8E50CB4010344
:0D008C001200C5E50DB401E875A00F80E37A
:030000000200D229
:0C00D200787FE4F6D8FD75810D02007CFB
:00000001FF
