:0A02A100C0F9A4B0999282F8809091
:0C028A004100050C4100061E4100041E4E
:10000E00E50AB4080040030200B490001FF8282847
:10001E007302003702004502005302005A020068C4
:10002E0002007602008802009DC290758001D29077
:10003E00C290900004804FC290758002D290C29000
:10004E009000048056C2907580048021C290758005
:10005E0008D290C290900006802CC290758010D26B
:10006E0090C2909000068033C290758020D290C2CC
:10007E0090900003E044BFF58022C290758040D27C
:10008E0090C290900005E075F00A84E5F08011C2F0
:10009E0090758080D290C290900005E075F00A8431
:0700AE009002A193F58022EE
:0D027D00E4F5C7F5C5F5C675C364F5C422E8
:10022C0075C78675C5018FC48EC375C65A75C6A5AC
:06023C0000AFC212027DBA
:010242002299
:1002430075C78675C5028FC48EC38DC275C65A75B0
:06025300C6A50002027DB9
:1002590075C78675C5038FC48EC375C65A75C6A57D
:040269000002027D10
:0A029700AB07AA0612025902024347
:0300030012022CBA
:0100060022D7
:03000B000201D31C
:1001D300C0E0C0F0C083C082C0D075D000C000753D
:1001E3008CFC758A180509E50970020508C394F4A7
:1001F300E50894014014750800750900050CE50C29
:100203007002050B900003E0F4F07580FF12000EFE
:10021300050AE50AC394084003750A00D000D0D04C
:09022300D082D083D0F0D0E0328B
:10026D00758901758CFC758A18D2AFD2A9D28C22F2
:1000B50012026D7F007EA812022C900005EFF07FE2
:1000C500007EAA120003A3EFF07F007EAC120003AE
:1000D500900004EFF0C3E50C9402E50B940040F5A5
:1000E500E4F50BF50C900004E004F0E0943C4008C6
:1000F500E4F0900006E004F0900006E0C3943C4074
:1001050008E4F0900005E004F0900005E0C39418C1
:100115004002E4F07D147F007EA812029712025976
:10012500900005E0FD1202437EAA120259A3E0FDEC
:100135001202437EAC120259900004E0FD12024304
:020145008093A5
:03000000020147B3
:0C014700787FE4F6D8FD75810C02018E73
:100153000200B5E493A3F8E493A34003F68001F20D
:1001630008DFF48029E493A3F85407240CC8C333AD
:10017300C4540F4420C8834004F456800146F6DF7C
:10018300E4800B010204081020408090028AE47E80
:10019300019360BCA3FF543F30E509541FFEE49371
:1001A300A360010ECF54C025E060A840B8E493A338
:1001B300FAE493A3F8E493A3C8C582C8CAC583CA63
:1001C300F0A3C8C582C8CAC583CADFE9DEE780BE1B
:010296000067
:00000001FF
