:0A038800C0F9A4B0999282F88090A9
:07000300D296C291C29622C1
:10034400EF7806C333CE33CED8F9FF120003E4FDB1
:10035400EE339295D291EF25E0FFEE33FEC2910D7C
:07036400BD0CEDD296C29121
:01036B00226F
:10036C00758901758A30758CF8D28CD2A9D2AF22DE
:03000B00020236B8
:10023600C0E0C0F0C083C082C0D075D000C000C08E
:1002460001C002C003C004C005C006C007758A30DD
:10025600758CF8050DE50D7002050CC394F4E50CDC
:1002660094014043750C00750D00AF0BAE0A1203E6
:1002760044C3E50B94C2E50A94034006750A00756B
:100286000B00AC0AAD0BE41201197B357A5E79FAE4
:10029600783E12000E1201528E088F09740A250B41
:1002A600F50BE4350AF50A7580FFE50E1460251492
:1002B600604724027061AE08AF097C007D0A120116
:1002C600D374882DF58274033CF583E493F5807529
:1002D600A0FE8043AE08AF097C007D0A1201D37CE4
:1002E600007D0A1201D374882DF58274033CF583D0
:1002F600E493F58075A0FD801EAE08AF097C007DF5
:10030600641201D374882FF58274033EF583E49357
:10031600547FF58075A0FB050EE50EC394034003DC
:10032600750E00D007D006D005D004D003D002D079
:0E03360001D000D0D0D082D083D0F0D0E03201
:0503920012036C80FE67
:10000E00EC4D6011E8497017ED33EC3304600DE4EC
:10001E00FCFFFEFD22E933E8330470F80201BE1244
:10002E00018958046009E4CC248150062850090245
:10003E0001C82840030201C5C0E0EB4A7044B980F4
:10004E0006D0E0FB0201B4EF4E701CBD8008EBFF42
:10005E00EAFEE9FD80EBE98DF0A4FEE5F00200F783
:10006E00E9CDF9EAFEEBFFEF89F0A4FCE5F0CE89CD
:10007E00F0A42EFFE435F0CD89F0A42DFEE435F08A
:10008E008067EF4E7005BD80D780C3EF8BF0A4ACB8
:10009E00F0EE8BF0A42CFCE435F0F8EF8AF0A42CF3
:1000AE00E5F038FCE433CB8DF0A42CFCE5F03BF806
:1000BE00EE8AF0A42CFCE5F038F8E433CF89F0A4F6
:1000CE002CFCE5F038CF3400CE89F0A42FFFE5F0FC
:1000DE003EFEE433C98DF0A42EFEE5F039CD8AF054
:1000EE00A42FFFE5F03EFEE43DFD33D0E0FB5007CC
:1000FE000BBB000F0201C8EC2CFCEF33FFEE33FEFE
:06010E00ED33FD0201A02B
:1001140075F020800E75F010800575F0087D007E66
:10012400007F003392D530D503120228EC334010FF
:10013400EF33FFEE33FEED33FDEC33FCD5F0ED226F
:0E014400E5F0247EA2D513CC92E7CDCEFF22AB
:10015200EDD2E7CD33EC3392D524814006E4FFFEA5
:10016200FDFC22FCE4CFCECDCC24E0501174FF8004
:10017200EDC3CC13CCCD13CDCE13CECF13CF0470A1
:07018200F030D5DE02022877
:10018900E9D2E7C933E833F892D5EDD2E7CD33ECBC
:0701990033FC5002B2D52235
:1001A000EC30E7100FBF000C0EBE00080DBD0004C0
:1001B0000BEB6014A2D5EB13FCED92E7FD2274FF6C
:1001C000FCFDFEFF22E480F8A2D574FF13FC7D80C5
:0301D000E480EFD9
:0300000002037C7C
:0C037C00787FE4F6D8FD75810E02039234
:1001D300BC000BBE0029EF8DF084FFADF022E4CC10
:1001E300F875F008EF2FFFEE33FEEC33FCEE9DECD9
:1001F300984005FCEE9DFE0FD5F0E9E4CEFD22ED1F
:10020300F8F5F0EE8420D21CFEADF075F008EF2F68
:10021300FFED33FD4007985006D5F0F222C398FD59
:050223000FD5F0EA22F6
:0E022800C3E49FFFE49EFEE49DFDE49CFC22E7
:00000001FF
