:0A035500C0F9A4B0999282F88090DC
:07035F00D2B4C2B7C2B42200
:10031E00E4FF12035FFED2B7EF25E0FF30B50343D3
:0A032E000701C2B70EBE08EED2B4FC
:0103380022A2
:03000B00020236B8
:10023600C0E0C0F0C083C082C0D075D000C000C08E
:1002460001C002C003C004C005C006C007758A7895
:10025600758CEC0508E508C3946440257508001202
:10026600031E750A008F0BAC0AAD0BE41201197B55
:10027600487AE179FA783F12000E1201528E0A8FFF
:100286000B7580FFE5091460251460472402706130
:10029600AE0AAF0B7C007D0A1201D374552DF58290
:1002A60074033CF583E493F58075A0018043AE0AA0
:1002B600AF0B7C007D0A1201D37C007D0A1201D3AC
:1002C60074552DF58274033CF583E493F58075A08F
:1002D60002801EAE0AAF0B7C007D641201D37455FA
:1002E6002FF58274033EF583E493547FF58075A061
:1002F600040509E509C394034003750900D007D036
:1003060006D005D004D003D002D001D000D0D0D082
:0803160082D083D0F0D0E03268
:10033900758901758A78758CECD2A9D2AFD28C22D5
:0800030012033912035F80FEB5
:10000E00EC4D6011E8497017ED33EC3304600DE4EC
:10001E00FCFFFEFD22E933E8330470F80201BE1244
:10002E00018958046009E4CC248150062850090245
:10003E0001C82840030201C5C0E0EB4A7044B980F4
:10004E0006D0E0FB0201B4EF4E701CBD8008EBFF42
:10005E00EAFEE9FD80EBE98DF0A4FEE5F00200F783
:10006E00E9CDF9EAFEEBFFEF89F0A4FCE5F0CE89CD
:10007E00F0A42EFFE435F0CD89F0A42DFEE435F08A
:10008E008067EF4E7005BD80D780C3EF8BF0A4ACB8
:10009E00F0EE8BF0A42CFCE435F0F8EF8AF0A42CF3
:1000AE00E5F038FCE433CB8DF0A42CFCE5F03BF806
:1000BE00EE8AF0A42CFCE5F038F8E433CF89F0A4F6
:1000CE002CFCE5F038CF3400CE89F0A42FFFE5F0FC
:1000DE003EFEE433C98DF0A42EFEE5F039CD8AF054
:1000EE00A42FFFE5F03EFEE43DFD33D0E0FB5007CC
:1000FE000BBB000F0201C8EC2CFCEF33FFEE33FEFE
:06010E00ED33FD0201A02B
:1001140075F020800E75F010800575F0087D007E66
:10012400007F003392D530D503120228EC334010FF
:10013400EF33FFEE33FEED33FDEC33FCD5F0ED226F
:0E014400E5F0247EA2D513CC92E7CDCEFF22AB
:10015200EDD2E7CD33EC3392D524814006E4FFFEA5
:10016200FDFC22FCE4CFCECDCC24E0501174FF8004
:10017200EDC3CC13CCCD13CDCE13CECF13CF0470A1
:07018200F030D5DE02022877
:10018900E9D2E7C933E833F892D5EDD2E7CD33ECBC
:0701990033FC5002B2D52235
:1001A000EC30E7100FBF000C0EBE00080DBD0004C0
:1001B0000BEB6014A2D5EB13FCED92E7FD2274FF6C
:1001C000FCFDFEFF22E480F8A2D574FF13FC7D80C5
:0301D000E480EFD9
:03000000020349AF
:0C034900787FE4F6D8FD75810B020003FC
:1001D300BC000BBE0029EF8DF084FFADF022E4CC10
:1001E300F875F008EF2FFFEE33FEEC33FCEE9DECD9
:1001F300984005FCEE9DFE0FD5F0E9E4CEFD22ED1F
:10020300F8F5F0EE8420D21CFEADF075F008EF2F68
:10021300FFED33FD4007985006D5F0F222C398FD59
:050223000FD5F0EA22F6
:0E022800C3E49FFFE49EFEE49DFDE49CFC22E7
:00000001FF
