:10000300002424242424247F44444444440400003E
:1000130040404040404241FE40404040404040005C
:10002300101013FF121110007F4040407F000000AA
:1000330020C000FF00820C30C0000000FC021E0044
:10004300D2A4E4FEED1392A1C2A0000000D2A0ED61
:10005300C313FD0EBE08EDAD07E4FEED1392A1C27E
:0E006300A0000000D2A0EDC313FD0EBE08EDFC
:01007100226C
:0A009D00FFEC93FD1200431200BCBB
:0900A700C2A7C2A2D2A7D2A22274
:0700BC00C2A5D2A5D2A622C5
:10007200C2A3C2A6E4FCEC9000039390001312000A
:100082009D0CBC10F1E4FCECC3941050E3EC900026
:0B009200239390003312009D0C80ECC3
:030000000200B04B
:0C00B000787FE4F6D8FD7581070200722D
:00000001FF
