:100003003A323031302F313100000000000000005F
:1000130000000037FE181843C8724802480BD8384E
:100023001830F8002000000000000000000000006D
:1000330000000000000000000000000000000000BD
:100043000000000000000000000000000001800725
:10005300E0799E1FF8129817F817D819383118202D
:100063001800000000000000000000000000000075
:10007300000000000000000000000000000000007D
:1000830000000000000000000006101CD03E304DB0
:10009300901E103EFF6D120C100C100C100000008F
:1000A300000000000000000000000000000000004D
:1000B300000000000000000000000000000000003D
:1000C30000000000000C6008603FF80CF01E102DCB
:1000D300D00C200CDC7B0E000000000000000000B0
:1000E300000000000000000000000000000000000D
:1000F30000000000000000000000000000000000FD
:1001030000093009203FFC210426E401807FFF40E1
:10011300C601800F00000000000000000000000086
:1001230000000000000000000000000000000000CC
:100133000000000000000000000000000000407B01
:10014300FC2A0430F429F826A038A021A1231E2478
:100153000C00000000000000000000000000000090
:10016300000000000000000000000000000000008C
:01017300008B
:0C036600EF4E6007EF1F70F81E80F522BC
:10033200C2A2D2A1D2A38F80C2A400D2A4D2A2C24E
:02034200A122F6
:10034400C2A2C2A1D2A38F80C2A400D2A4D2A2D23C
:02035400A122E4
:10025300AF010985098285088375F03CE50F120219
:10026300EFE5822FF582E43583F583E493FD7FC0C8
:0E027300AE05AD07AF06120344AF050203321D
:10031F00AE07AC03AF05120344AF04120344AF069C
:03032F0002033294
:1001DC00C2A07FD07E07120366D2A0E4FBFD7F4055
:1001EC0012031F7D107F4112031F7B08FD7F4212FB
:1001FC00031FFB7D107F4312031F7FA01203327F6E
:0E020C00801203327F921203327F9F02033270
:10028100E4FBFD7F2412031F7FB0120332FCE4FF65
:100291001203440DBD00010CE4B505F2ECB420EEEF
:0D02A1007FB2120332E4FBFD7F2402031F35
:0202FB00AC074E
:1002FD00ED75F010A4AD047C002DFFEC35F0FEEB98
:10030D006007E42FFF74013EFEAD07AB067F2402AC
:02031D00031FBC
:10035600AA03E4FB1202FBEA24E0FD7FC402027357
:10021A008F088D098B0A8A0B890CAB0AAA0BA90CC9
:10022A001202D6FB6022E508D3940F4005E4F508D4
:10023A000509AD09AF0812035605087401250CF526
:09024A000CE4350BF50B80D22207
:0C0174008E088F098C0A8D0B8A0C8B0DF5
:10018000E50FC3950E5054E4F9E50DC4F8540FC8BB
:1001900068FFE50CC454F048FEE50B2FCFE50A3E9E
:1001A000CF2400F511EF3408F510E4FAAD11E51095
:1001B000FB7F2412031F12025312025374102511E5
:1001C000F511E43510F5100ABA10E17402250BF5AB
:0B01D0000BE4350AF50A050F02018060
:0101DB002201
:1002AE001201DC1202817E007F0C750E06E4F50F42
:1002BE007B05FA7D02FC1201747BFF7A0079037DC7
:0802CE00057F0512021A80DE13
:0300000002037286
:0C037200787FE4F6D8FD7581110202AE20
:1002D600BB010689828A83E0225002E722BBFE0226
:0902E600E32289828A83E4932259
:0C02EF00A42582F582E5F03583F583221A
:00000001FF
