:03000000020026D5
:0C002600787FE4F6D8FD75811702006DAC
:0F01560005097A6D0D0A00060F6C6D7A0D0A000F
:1000030075A0A0E4F58075A0807580FF75A0C0750C
:0900130080FF75A0FF7580FF223B
:0B0175000000007F0B7EBEDEFEDFFC02
:01018000225C
:10012900759850438E40538EFE53890F758BE07539
:070139008DFEC2ABD28E2245
:03002300020110C7
:10011000C0E0C0D0C29885990EE50EB4410675A026
:09012000807580FED0D0D0E032E1
:0600B2008B158A16891768
:1000B800E4FFAB15AA16A917AE070F8E8275830049
:1000C8001200E3F5993099FDC299AB15AA16A91744
:0A00D8008F827583001200E370D8D8
:0100E20022FB
:1001400020B01212017520B00C30B0FD7B007A0097
:0601500079091200B22241
:0F016600120003120129D2AFD2AC12014080FB6C
:10003200020166E493A3F8E493A34003F68001F27D
:1000420008DFF48029E493A3F85407240CC8C333CF
:10005200C4540F4420C8834004F456800146F6DF9E
:10006200E4800B0102040810204080900156E47ED7
:10007200019360BCA3FF543F30E509541FFEE49393
:10008200A360010ECF54C025E060A840B8E493A35A
:10009200FAE493A3F8E493A3C8C582C8CAC583CA85
:1000A200F0A3C8C582C8CAC583CADFE9DEE780BE3D
:010165000099
:1000E300BB010CE58229F582E5833AF583E02250D2
:1000F30006E92582F8E622BBFE06E92582F8E2221C
:0D010300E58229F582E5833AF583E4932235
:00000001FF
