:030000000208FBF8
:0C08FB00787FE4F6D8FD75817C020003D4
:1007E80000000800040002000180406080007FFFD4
:1007F800000000200040008001000600000000000A
:1008080000800080008200820082408280827FE235
:1008180000A20092008A0086008000C000800000CC
:10082800004000603F5E01480148FFFF1148214C2D
:100838001F68004007F8400080007FFF00000000AC
:10084800008000400020FFF8008700400030000FC3
:10085800FFF80888088808C80C88080C00080000F9
:1008A300D2B4C2B420B504D2B680F9AF80750800C3
:0508B3008F09C2B6220E
:0C090700C2A2D2A1D2A0C2A02097F92267
:0E08DF00120907C2A2C2A18F90D2A0C2A0220D
:0E08ED00120907D2A2C2A18F90D2A0C2A022EF
:10086800EF64014E7004C2A4D2A3EF64024E700478
:0F087800D2A4C2A3EF64034E7004C2A4C2A32291
:06088700F583E493F50B7C
:10088D00AF69AE68120868AF0C1208DFAF0A120824
:06089D00DFAF0B0208EDC5
:100736007F037E001208687EB8AF061208DF7F408E
:100746001208DFE4FDE4FF1208ED0DBD40F70EEEE2
:10075600D394BF40E47F017E00120868750A407595
:100766000CB8750BFF12088D050CE50CC394BF4041
:10077600F1750CB8750A40750B8012088D050AE5EF
:100786000AD3947F40F1750CBF750A40750B0112B0
:10079600088D050AE50AD3947F40F17F027E001298
:1007A6000868750CB8750A40750B8012088D050A25
:1007B600E50AD3945B40F1750CBF750A40750B01D1
:1007C60012088D050AE50AD3945B40F1750A5B753C
:1007D6000CB9750BFF12088D050CE50CD394BE40C1
:0107E600F121
:0107E70022EF
:0A0913007FC01208DF7F3F0208DFFB
:1008B800D3EF9400EE9400400B7D13DDFEEF1F7024
:0408C800EF1E80ECB3
:0108CC002209
:1008CD007DB98D0CE4F50B12088D0DEDD394BE4062
:0108DD00F129
:0108DE0022F7
:10000300E4F56EF56FF57275730112073612091375
:100013007F027E001208687DB8E4FBFAC3EB940408
:10002300EA940040030200AF8D0C750A70E4F56A90
:10003300F56B75F020EBA4F58285F08375F002E58E
:100043006B12072AE58224E9F582E5833407120857
:1000530087050A056BE56B7002056AC39410E56AB0
:10006300940040CEED04F50C750A70E4F56AF56B67
:1000730075F020EBA4F58285F08375F002E56B1231
:10008300072AE58224E8F582E58334071208870509
:100093000A056BE56B7002056AC39410E56A940068
:0C00A30040CE0BBB00010A0D0D02001F37
:1000AF0020B70D30B7FD056FE56F70F4056E80F06A
:1000BF0020B31330B3FDE56F456E60F4E56F156F38
:1000CF0070EE156E80EA20B00D30B0FD0573E5734C
:1000DF0070F4057280F020B11530B1FDE573640145
:1000EF00457260F2E573157370EC157280E8E4F5F4
:1000FF006CF56D1208A3AE6D740D2EF8A609740D74
:10010F002EF8E6FFD3956840028F68AF6FAE6E1280
:10011F0008B8056DE56D7002056CC3945AE56C94D3
:10012F000040D0E56865097002E50860051208A374
:10013F0080F1E4F56CF56D1208A3740D256DF8A62A
:10014F0009AF6FAE6E1208B8056DE56D7002056CE4
:10015F00C3945AE56C940040DE750A41E4F56AF5E4
:10016F006BF56CF56DC3E56B945AE56A940040032B
:10017F000200AFC3E56D943FE56C940050067568BF
:10018F0000756901E56D643F456C7003750A40C3E6
:10019F00E56D943FE56C9400400675680075690243
:1001AF001208CDC3E56D947FE56C940040047F0188
:1001BF0080027F00740D2FF8E67003020294740D15
:1001CF00256DF8E62481FDE434FFFCE41206627B22
:1001DF00397AB47948783E1204B7C004C005C00616
:1001EF00C007AC72AD73E4120662A804A905AA0693
:1001FF00AB07D007D006D005D0041205C012069B5E
:10020F008E088F09D3E5099407E5089400501275FD
:10021F000CBB7480A807088002C313D8FCF50B80B1
:10022F0064D3E509940FE50894005017750CBAE5EF
:10023F000924F8FF7480A807088002C313D8FCF5BF
:10024F000B8042D3E5099417E50894005017750CFD
:10025F00B9E50924F0FF7480A807088002C313D8FA
:10026F00FCF50B8020D3E509941FE5089400501589
:10027F00750CB9E50924E8FF7480A807088002C34C
:10028F0013D8FCF50B740D256DF8E6FFC3947F4072
:10029F0003020366C3747F9FFDE49400FCE412061F
:1002AF00627B397AB47948783E1204B7C004C0052E
:1002BF00C006C007AC72AD73E4120662A804A905AC
:1002CF00AA06AB07D007D006D005D0041205C0127E
:1002DF00069B8E088F09D3E5099407E50894005013
:1002EF0012750CBC7401A807088002C333D8FCF543
:1002FF000B8064D3E509940FE50894005017750C33
:10030F00BDE50924F8FF7401A807088002C333D89C
:10031F00FCF50B8042D3E5099417E50894005017BC
:10032F00750CBEE50924F0FF7401A807088002C30D
:10033F0033D8FCF50B8020D3E509941FE508940012
:10034F005015750CBEE50924E8FF7401A807088055
:10035F0002C333D8FCF50BE56B456A7006850B7746
:10036F00850C78E56B456A700302048D850B7985E2
:10037F000C7AE50C65787047E50BD39577401C85B3
:10038F000B7BE57B13F57BE57B6577600EE57BC328
:10039F0013F57BE50BC313420B80ECE50BC395778D
:1003AF00501D850B7BE57B25E0F57BE57B65776055
:1003BF000EE57B25E0F57BE50B25E0420B80ECE5B8
:1003CF000CC395785059E4F570F571E50B25E042B3
:1003DF000B0571E571700205706407457070EC8054
:1003EF000AE50CC39578500A750BFF12088D050CA2
:1003FF0080EFE50C65787027750B01E50BC39577DA
:10040F00501D850B7BE57B25E0F57BE57B657760F4
:10041F000EE57B25E0F57BE50B25E0420B80ECE557
:10042F000CD395784058E4F570F571E50BC3134282
:10043F000B0571E571700205706407457070EC80F3
:10044F000AE50CD39578400A750BFF12088D150C31
:10045F0080EFE50C65787026750B80E50BD39577EB
:10046F00401C850B7BE57B13F57BE57B6577600E89
:10047F00E57BC313F57BE50BC313420B80ECE56BF8
:10048F00456A6006857977857A7812088DE50A6462
:10049F007F6002050A056BE56B7002056A056DE565
:0804AF006D7002056C0201747E
:1004B700EC4D6011E8497017ED33EC3304600DE43F
:1004C700FCFFFEFD22E933E8330470F80207071248
:1004D70006D258046009E4CC24815006285009024A
:1004E700071128400302070EC0E0EB4A7044B980A9
:1004F70006D0E0FB0206FDEF4E701CBD8008EBFF47
:10050700EAFEE9FD80EBE98DF0A4FEE5F00205A027
:10051700E9CDF9EAFEEBFFEF89F0A4FCE5F0CE891F
:10052700F0A42EFFE435F0CD89F0A42DFEE435F0DC
:100537008067EF4E7005BD80D780C3EF8BF0A4AC0A
:10054700F0EE8BF0A42CFCE435F0F8EF8AF0A42C45
:10055700E5F038FCE433CB8DF0A42CFCE5F03BF858
:10056700EE8AF0A42CFCE5F038F8E433CF89F0A448
:100577002CFCE5F038CF3400CE89F0A42FFFE5F04E
:100587003EFEE433C98DF0A42EFEE5F039CD8AF0A6
:10059700A42FFFE5F03EFEE43DFD33D0E0FB50071E
:1005A7000BBB000F020711EC2CFCEF33FFEE33FE01
:0605B700ED33FD0206E930
:1005BD00020711EC5D046005E8590470030207079A
:1005CD001206D2580460F6EC4860F2EC7004FDFEA1
:1005DD00FF22C860DB2481C85009C3986002500611
:1005ED0002070E9850CAF582E9294B4A7005AB8275
:1005FD000206FD75F0007C1A7880C3EF9BEE9AED34
:10060D0099400DC3EF9BFFEE9AFEED99FDE842F088
:10061D00DC23ACF0D0E0FFD0E0FED0E0FDAB8220DB
:10062D00E7101BEB60BAEC2CFCEF33FFEE33FEED65
:10063D0033FD0206E9E803F830E705C0F075F00078
:10064D00EF2FFFEE33FEED33FD40B830E7C280AA49
:10065D0075F020800E75F010800575F0087D007E18
:10066D00007F003392D530D50312071CEC334010B8
:10067D00EF33FFEE33FEED33FDEC33FCD5F0ED2221
:0E068D00E5F0247EA2D513CC92E7CDCEFF225D
:10069B00EDD2E7CD33EC3392D524814006E4FFFE57
:1006AB00FDFC22FCE4CFCECDCC24E0501174FF80B6
:1006BB00EDC3CC13CCCD13CDCE13CECF13CF047053
:0706CB00F030D5DE02071C30
:1006D200E9D2E7C933E833F892D5EDD2E7CD33EC6E
:0706E20033FC5002B2D522E7
:1006E900EC30E7100FBF000C0EBE00080DBD000472
:1006F9000BEB6014A2D5EB13FCED92E7FD2274FF1E
:10070900FCFDFEFF22E480F8A2D574FF13FC7D8076
:03071900E480EF8A
:0E071C00C3E49FFFE49EFEE49DFDE49CFC22EE
:0C072A00A42582F582E5F03583F58322DA
:00000001FF
