:10024000C0F9A4B0999282F88090BFFF7F010204A8
:050250000810204080B1
:07000300C2B4C2B7D2B4225F
:10026900E4FEEF1392B5C2B7D2B7EFC313FF0EBEC8
:0202790008F08B
:01027B002260
:10021600E4FED2B7C2B7EFC313FF30B5034307807E
:040226000EBE08EE12
:01022A0022B1
:10028E00120003120269AF05120269D2B7C2B4227C
:0D02AE00120003120269120216D2B7C2B488
:0102BB002220
:03027C001202AEBD
:0E027F00EF540FFEEFC4540F75F00AA42EFFCB
:01028D00224E
:10025500EF75F00A84AEF0EF75F00A84C454F042ED
:0302650006AF06DB
:010268002273
:1001D5007F8112027C8F107F8312027C8F127F85B4
:1001E5001202AE12027F8F117F871202AE12027FBA
:1001F5008F0C7F891202AE12027F8F0D7F8B120248
:10020500AE12027F8F0E7F8D1202AE12027F8F0F0C
:0102150022C6
:10022B00C290D290EF90024D93F580C290ED900268
:05023B004093F5802254
:03000B0002000EE2
:10000E00C0E0C0F0C083C082C0D075D000C000C0B8
:10001E0004C005C006C007758CF8758A300508E562
:10002E0008C394FA4013750800630BFF0509E50930
:10003E0094054005750900B2002000030200D17539
:10004E0080FFE50AB408004003020164900061F8E5
:10005E0028287302007902007E02008302009102BA
:10006E00009C0200A50200B30200C3E5100200FFCF
:10007E00E51002010EE50B60057D0B0201227D0AE3
:10008E00020122E51275F00A84E5F002012EE51256
:10009E0075F00A8402013DE50B60057D0B02014BF4
:1000AE007D0A02014BE51175F00A84E5F0FD7C0036
:1000BE007F0602015FE51175F00A84FD7C007F0763
:1000CE0002015F7580FFE50AB40800400302016477
:1000DE009000E5F82828730200FD02010C020119B8
:1000EE00020128020135020144020151020159E5C3
:1000FE000C75F00A84E5F0FD7C00E4FF804AE50C07
:10010E0075F00A84FD7C007F018046E50D75F00ACE
:10011E0084E5F0FD7C007F028037E50D75F00A84E2
:10012E00FD7C007F03802AE50F75F00A84E5F0FD63
:10013E007C007F04801BE50F75F00A84FD7C007F38
:10014E0005800EE4FDFC7F06FE80087D027C007FAC
:10015E00077E0012022B050AE50AC39408400375B8
:10016E000A00D007D006D005D004D000D0D0D0825F
:07017E00D083D0F0D0E03285
:10029E00758901758CF8758A30D28CD2A9D2AF22AD
:100185007C2E7F2E120255AC0712029EE4FD7F8E57
:1001950012028E7D307F8012028EAD047F821202A4
:1001A5008E7D127F8412028E7D287F8612028E7DBF
:1001B500057F8812028E7D037F8A12028E7D127F53
:1001C5008C12028E7D807F8E12028E1201D580FBED
:030000000202BC3D
:0C02BC00787FE4F6D8FD758120020185F2
:00000001FF
