:030000000201BE3C
:0C01BE00787FE4F6D8FD7581100201CABC
:0A01D500C0F9A4B0999282F880905E
:0301AF0093F58045
:0B01B2000000007F0B7EBEDEFEDFFCC5
:0101BD00221F
:1001960075A0A0E4F58075A0807580FF75A0C07578
:0901A60080FF75A0FF7580FF22A7
:1001020075A0C075800175A0FFE50E9001D51201A2
:10011200AF75A0C075800275A0FFE50B1201AF7527
:10012200A0C075800475A0FFE50993F5801201B2A5
:1001320075A0C075800875A0FFE50D93F5801201CA
:10014200B275A0C075801075A0FFE50F93F58012FF
:1001520001B275A0C075802075A0FFE50A93F580F5
:100162001201B275A0C075804075A0FFE50C93F531
:10017200801201B275A0C075808075A0FFE508935A
:10018200F5801201B275A0C07580FF75A0FF758061
:04019200FF0201B2B5
:1000030075B07FC2C285B01053100FE510640F6046
:10001300431201B285B01053100FE510640F602630
:1000230085B010E5102489601A24FC601124FE6059
:1000330008147012750E01800D750E028008750E7E
:10004300038003750E04E510640F600885B0105338
:10005300100F80F2D2C275B0BFC2C285B010531068
:100063000FE510640F60431201B285B01053100FF7
:10007300E510640F602685B010E5102449601A244A
:10008300FC601124FE6008147012750B01800D755D
:100093000B028008750B038003750B04E510640FD6
:1000A300600885B01053100F80F2D2C275B0DF859F
:1000B300B01053100FE510640F60431201B285B006
:1000C3001053100FE510640F602685B010E510245F
:1000D30029601A24FC601124FE600814701275094B
:1000E30001800D75090280087509038003750904F1
:0E00F300E510640F600885B01053100F80F206
:0101010022DB
:0B01CA0012019612010212000380F8DF
:00000001FF
