:10000300BAC3C8CBD2BBC9FAC6BDB0B2A3AC00D782
:10001300A3C4E3D2BBB7ABB7E7CBB3A1A3003132E1
:10002300333435363738390061626364656667682F
:10003300696A00FFFFFFFFFFFFFFFFFFFFFFFFFCFA
:10004300000000FFFFFFFFFFFFFFFFFFFFFFFFFCBD
:10005300000000FFFFFFFFFFFFFFFFFFFFFFFFFCAD
:10006300000000E000000000000000000000000CA1
:10007300000000E000000000000000000070000C21
:10008300000000E0000000000000000000F8000C89
:10009300000000E0000000000000000000FE000C73
:1000A300000000E0000000000000000000FF000C62
:1000B300000000E0000000000000000001FF800CD1
:1000C300000000E00000FF0000000000FFFF800CC4
:1000D300000000E00007FFE000000007FFFF800CC6
:1000E300000000E0001FFFF80000001FFFFFC00C2E
:1000F300000000E0003FFFFC0000003FFFFFF80CA2
:10010300000000E0007FFFFE0000007FFFFFFE0C09
:10011300000000E000FFFFFF000000FFFFFFFF0CF7
:10012300000000E001FFFFFF800001FFFFFFFF8CE5
:10013300000000E003FFFFFFC00003FFFFFFFF8C91
:10014300000000E007FC7C7FE00007FFFFFFFF8C5F
:10015300000000E00FFC3C3FE0000FFFFFFFFF8CBF
:10016300000000E00FF8BF3FF0000FF8BF3FFE0CA8
:10017300000000E00FF9FF3FF0000FF9FF3FF80C1C
:10018300000000E01FF9FFBFF0001FF9FFBFF80CEC
:10019300000000E01FF9FF3FF8001FFDFF3FF80CD0
:1001A300000000E01FFDFF7FF8001FFDFF7FF80C3C
:1001B300000000E01FFFFEFFF8001FFFFFFFF80C29
:1001C300000000E03FFFFFFFF8001FFFFFFFF80CF8
:1001D300000000E01FFFFFFFF8001FFFFFFFF80C08
:1001E300000000E03FFFFFFFF8003FFFFFFFF80CB8
:1001F300000000E07FFFFFFFFC007FFFFFFFFC0C20
:10020300000000E07FFFFFFFFC007FFFFFFFFC0C0F
:10021300000000E07FFFFFFFFC007FFFFFFFFC0CFF
:10022300000000E0FFFFFFFFFC00FFFFFFFFFC0CEF
:10023300000000E07FFFFFFFFC007FFFFFFFFC0CDF
:10024300020000E07FFFFFFFFC007FFFFFFFFC0CCD
:10025300000000E0FFFFFFFFFE00FFFFFFFFFE0CBB
:10026300000000E1FFFFFFFFFE01FFFFFFFFFE0CA9
:10027300000000E1FFFFFFFFFF01FFFFFFFFFF0C97
:10028300000000E3FFFFFFFFFF83FFFFFFFFFF8C83
:10029300000000E7FDFFFFFF3FC7FDFFFFFF3FCC6F
:1002A300000000E7F8FFFFFC3FC7F8FFFFFC3FCC6F
:1002B300000000EFF9FFFF803FCFF9FFFF803FCC45
:1002C300000000EFF9FF00001FEFF9FF00001FEC33
:1002D300000000EFF9FF00001FEFF9FF00001FEC23
:1002E300000000EFF9FF00001FEFF9FF00001FEC13
:1002F300000000EFF9FF00001FEFF9FF00001FEC03
:10030300000000EFF8FF00001FEFF8FF00001FECF4
:10031300000000EF787E00001FEF783E00001FEC26
:10032300000000EF780000003FEF780000003FEC92
:10033300000000EE7C0000003CC67C0000003CCCCA
:10034300000000E03C0000003C003C0000003C0CCE
:10035300000000E01E00000078001E000000780C82
:10036300000000E01F000000F0001F000000F00C80
:10037300000000E03F800001F8003F800001F80C1E
:10038300000000E07FE00007FC007FE00007FC0CBA
:10039300000000E07FF8001FFC007FF8001FFC0C4A
:1003A300000000E07FFFE7FFFC007FFFE7FFFC0C9E
:1003B300000000E07FFFFFFFFC007FFFFFFFFC0C5E
:1003C300000000E03FFFFFFFF8003FFFFFFFF80CD6
:1003D300000000E01FFFC7FFF0001FFFC7FFF00C86
:1003E300000000E003FE00FF800003FE00FF800C1E
:1003F300000000E000000000000000000000000C0E
:10040300000000EF7F00FFFFFFF00000000000048A
:10041300000000FFFF7FFFFFFFFFFFFFFFFFFFFC69
:10042300000000FFFFFFFFFFFFFFFFFFFFFFFFFCD9
:03043300000000C6
:08074300FF12079C7F017E00FC
:10074B00E4FDFCC3ED9FEC9E5015E4FBFA0BBB00E4
:0F075B00010AEB640A4A70F50DBD00010C80E441
:01076A00226C
:0F076B0012077AED54F0FF12077AEDC454F0FF35
:10077A00E4FEC285EF25E0FF9284D285C2850EBED3
:02078A0008F075
:01078C00224A
:0C079C00AD07D2837FF812076BC28322E6
:0C07A800AD07D2837FFA12076BC28322D8
:1006D1007F287E0012074BC2867F0112074BD2860C
:1006E1007F0A12074B7F3012079C7F647E0012073E
:1006F1004B7F0C12079C7F647E0012074B7F011217
:10070100079C7F0A7E0012074B7F0612079C7F64BD
:050711007E0002074B11
:0C07B4007F0112079C7F647E0002074B4F
:04067E007B0C7D0173
:020682008B0AE1
:10068400EF24FE600F14601114601324037016ED40
:100694002480800DED24908008ED24888003ED24CF
:1006A40098FF12079C7F647E0012074B751303E4C6
:1006B400FCECC3950A5015AB0BAA0CA90D8C8275E2
:0C06C4008300120716FF1207A80C80E547
:0106D0002207
:100547007F3412079C7F3412079CE4F508E4F9E92D
:100557002480120743E50870047F8080027F881299
:100567000744E4F509E4FF1207A8E4FF1207A812FD
:1005770007470509E509C3941040EA09B920D005E2
:1005870008E508C3940240C5E4F9E4F50975F010DD
:10059700E9A42400F582E5F03400F583E582250916
:1005A700F582E43583F583E4F00509E509B410DD48
:0E05B70009B940D67F3612079C7F3002079CA0
:04043600A907AC0561
:10043A007F3612079CEC131313541FF510ECC454A7
:10044A000FF50EEC540FF50FE9C4135407F511E933
:10045A00541FF512120747E5122480FF12079CE584
:10046A001175F008A42480250E120743E50FC394E2
:10047A0008504575F010E9A42400F582E5F034002F
:10048A00F583E5822510F582E43583F583E0FFC321
:10049A007407950FFE7401A806088002C333D8FCBE
:1004AA004FFF1207A8C37407950FFF7401A8070826
:1004BA008002C333D8FC806275F010E9A424FFF5EA
:1004CA0082E5F034FFF583E5822510F582E4358371
:1004DA00F583E0FF1207A875F010E9A42400F5825D
:1004EA00E5F03400F583E5822510F582E43583F5DD
:1004FA0083E0FFC3740F950FFE7401A806088002FB
:10050A00C333D8FC4FFF1207A8C3740F950FFF74AB
:10051A0001A807088002C333D8FCFF75F010E9A4CC
:10052A002400F582E5F03400F583E5822510F58292
:0D053A00E43583F583E04FF07F3002079C2D
:1005C5007436250DF5827400350CF583E493F50832
:1005D500E4F509E4F50AE50830E709AD0AAF0912C3
:1005E50004368000E50825E0F508050BE50BD394F6
:1005F50007401CE4F50B050DE50D7002050C2436CE
:10060500F5827400350CF583E493F508530C030566
:100615000AE50AD3947F40BE0509E509D3943F4016
:01062500B222
:0106260022B1
:0E078D0000007F2B7E067DCBDDFEDEFCDFFA5A
:01079B00223B
:100627001206D11205471207B41205C512078D121B
:10063700078D120547750BFF750C00750D037F01BC
:1006470012067E750BFF750C00750D127F021206E0
:100657007E750BFF750C00750D217B097D017F03EE
:10066700120682750BFF750C00750D2B7B0C7D0137
:070677007F0412068280BE21
:030000000207C034
:0C07C000787FE4F6D8FD7581130206274F
:10071600BB010CE58229F582E5833AF583E0225098
:1007260006E92582F8E622BBFE06E92582F8E222E2
:0D073600E58229F582E5833AF583E49322FC
:00000001FF
