:03000000020B1ED2
:0C0B1E00787FE4F6D8FD75814A020B6573
:0C000E00C0F9A4B0999282F88090BFFF66
:100F2100073E373B1700000000012300C10AC1083A
:100F3100C105C102C106C103C109C107C101C10087
:020F4100C104E9
:030FCC0093F5801A
:0B0FCF000000007F0B7EBEDEFEDFFC9A
:010FDA0022F4
:100F640075A0A0E4F58075A0807580FF75A0C0759C
:090F740080FF75A0FF7580FF22CB
:1009F70075A0C075800175A0FFE53B90000E120F32
:100A0700CC75A0C075800275A0FFE538120FCC75B4
:100A1700A0C075800475A0FFE53193F580120FCF54
:100A270075A0C075800875A0FFE53A93F580120F91
:100A3700CF75A0C075801075A0FFE54793F58012AC
:100A47000FCF75A0C075802075A0FFE53393F580A3
:100A5700120FCF75A0C075804075A0FFE53993F5DB
:100A670080120FCF75A0C075808075A0FFE5309309
:100A7700F580120FCF75A0C07580FF75A0FF758038
:040A8700FF020FCF8C
:100FA800E4FEC297EF1392A3EFC313FFD2970EBECE
:020FB80008F03F
:010FBA002214
:100EB700C29300C29700D29300120FA8ED75F00AF3
:100EC70084C454F0FFED75F00A84E5F04FFF120F6C
:040ED700A8C29322F8
:100DD400E4FDC29300C29700D29300120FA8E4FF6F
:100DE400C297EDC313FD30A303430580D2970FBF11
:100DF40008EEC29300C293C29700D29700C2A30028
:100E0400D2A300ED540FFFEDC4540F75F00AA42FC4
:010E1400FFDE
:010E150022BA
:100EDB007C80E4FD7F8E120EB7E4FBAF04743E2BD7
:100EEB00F8E6FD120EB70C0C0BBB07EF7D807F8E67
:030EFB00020EB72D
:100EFE007C81E4FD7F8E120EB7E4FBAF04120DD49D
:100F0E00743E2BF8A6070C0C0BBB07EF7D807F8E73
:030F1E00020EB709
:100CE500D2A1D2A00000000000000000000000001A
:100CF50000000000000000000000000000000000EF
:100D0500000000000000000000000000C2A100007B
:100D150000000000000000000000000000000000CE
:100D250000000000000000000000000000000000BE
:090D3500000000000000C2A02231
:100E8800C2A1D2A000000000000000000000000085
:100E9800000000000000000000000000000000004A
:0F0EA800000000000000000000000000D2A122A6
:0B0A8B00120C17120BB5120C80C20BEE
:100A9600300B04C2A18002D2A100000000000000B9
:100AA6000000000000000000000000000000000040
:100AB6000000000000000000000000000000000030
:100AC60000D2A000000000000000000000000000AE
:100AD6000000000000000000000000000000000010
:100AE6000000000000000000000000C2A0D2A1002B
:100AF60000000000000000000000000000000000F0
:100B060000000000000000000000000000000000DF
:080B16000000000000000022B5
:0B0BAA00120C17120BB5AF05120C1750
:100BB500D2A10000000000000000000000000000BD
:100BC5000000000000000000000000000000000020
:100BD50000000000000000000000D2A0000000009E
:100BE5000000000000000000000000000000000000
:100BF50000000000000000000000000000000000F0
:100C05000000000030A107C2A0120E88C322C2A0B6
:020C1500D322E8
:100C1700E4FEEF30E704D2A18002C2A10000000089
:100C270000000000000000000000000000000000BD
:100C370000000000000000000000000000000000AD
:100C470000000000D2A0EF25E0FF00000000000038
:100C5700000000000000000000000000000000008D
:100C6700000000000000000000000000000000007D
:080C77000000C2A00EBE089AA5
:010C7F002252
:100C8000E4FED2A000000000000000000000000010
:100C90000000000000000000000000000000000054
:100CA000000000000000000000000000EF25E0FF51
:100CB00030A103430701C2A00000000000000000B3
:100CC0000000000000000000000000000000000024
:100CD0000000000000000000000000000000000014
:040CE0000EBE089E9E
:010CE40022ED
:020F7D00AD07BE
:100F7F00120CE57F90120BAA120CE57F91120A8BCF
:030F8F00120E88B7
:010F9200223C
:100F9300AC07120CE57FA0120C17120BB5AF0412AD
:050FA3000BAA020E88FC
:0A0F44007528008F29120FCF7F01DE
:020F4E00AD07ED
:100F5000120CE57FA0120BAA120CE57FA1120A8BDE
:030F6000120E88E6
:010F6300226B
:1007BB0075B07FC2C485B00853080FE508640F708D
:1007CB000302086D120FCF85B00853080FE50864BC
:1007DB000F700302085F85B008E508248960372491
:1007EB00FC602124FE600F14706AD20AD208C20684
:1007FB00C203C2058018D205D202C20AC206C203C6
:10080B00C208800CD206D203C205C20AC208C202B9
:10081B00C201C200803E30080EC20A0548E548D32B
:10082B009403400375480130020EC2050522E522F0
:10083B00D39402400375220130030BC20620090436
:10084B00D2098002C20930000BC201200404D20479
:10085B008002C204E508640F600885B00853080FD6
:10086B0080F2D2C475B0BFC2C285B00853080FE581
:10087B0008640F70030209F4120FCF85B008E50866
:10088B00640F70030209E6E508244570030209D6DC
:10089B0024FE70030209321460030209E6E548B432
:1008AB00010F0540E540C394184017754017020926
:1008BB0069E548B4020F053FE53FC3943C4003751F
:1008CB003F3B020969E548B4030F053EE53EC3947F
:1008DB003C4003753E3B020969E522B4012074F4E8
:1008EB002529F52974013528F528C3E5299488E5D0
:1008FB00289413400675281375298802098FE52261
:10090B00640260030209E674F42527F527740135A8
:10091B0026F526C3E5279488E5269413400675260D
:10092B00137527880209C2E548B4010E1540E5404E
:10093B00D394005003E4F5408024E548B4020E152F
:10094B003FE53FD394005003E4F53F8011E548B4F5
:10095B000311153EE53ED394005003E4F53E120E11
:10096B00DB8078E522B4012D740C2529F52974FE62
:10097B003528F528D3E5299400E52894005005E4A3
:10098B00F528F529AE28AF297C007D6412068AADC7
:10099B0007E4FF8031E52264027040740C2527F5D3
:1009AB002774FE3526F526D3E5279400E52694001B
:1009BB005005E4F526F527AE26AF277C007D6412A3
:1009CB00068AAD077F01120F938010D201D200C2AD
:1009DB0005C202C20AC206C203C208E508640F6060
:0B09EB000885B00853080F80F2D2C24C
:0109F60022DE
:0F0FDB00438E805389F0758AC9758CFFC28D22B1
:100FBB00438E4053890F758B9A758DA9C28FD28E34
:010FCB002203
:03000B00020E16CC
:100E1600C0E020B41B052DE52D7002052C20072C03
:100E2600D207852436852537752400752500801C54
:100E360030B4190525E5257002052430070EC207D2
:0F0E4600852C45852D46752C00752D00D0E0328A
:03001B00020E557D
:100E5500C0E0C0D03006270535E53570020534C33E
:100E650094EFE534940140028010E535B4F40FE5C4
:100E750034B4010A753400753500D2A9D28CD0D0AE
:030E8500D0E03288
:10001E0020080302010F300A16E4F548E54075F09A
:10002E000A84F53BE54075F00A8485F0388024E5B6
:10003E004864017034E53E20E013E54075F00A8413
:10004E00F53BE54075F00A8485F0388006753B0B6C
:10005E0075380B75310AE53F75F00A84F53AE53FC0
:10006E0075F00A8485F0478038E54864027048E5EB
:10007E003E20E013E53F75F00A84F53AE53F75F052
:10008E000A8485F0478006753A0B75470B75310A61
:10009E00E54075F00A84F53BE54075F00A8485F07D
:1000AE003875330AE53E75F00A84F539E53E75F08C
:1000BE000A8485F030804AE54864037044E53E20AA
:1000CE00E01175F00A84F539E53E75F00A8485F085
:1000DE0030800675390B75300B75310AE54075F0B9
:1000EE000A84F53BE54075F00A8485F03875330ACD
:1000FE00E53F75F00A84F53AE53F75F00A8485F020
:10010E0047200203020307E4FF120F4E120F44753D
:10011E0026008F27AE267C007D641206788E268FF1
:10012E0027AE28AF291206788E288F29300557E47E
:10013E00F52275310A753B0A753801753A0BAE49D1
:10014E00AF4A7C037DE812068A8F47AE49AF4A7CE0
:10015E00037DE812068A7E007F64CFCDCFCECCCE53
:10016E0012068A8F33AE49AF4A7C007D6412068A2E
:10017E007E007F0ACFCDCFCECCCE12068A8F39AE7F
:10018E0049AF4A020243E5226401600302024FE5D1
:10019E003E20E050AE28AF297C037DE812068A8F00
:1001AE003BAE28AF297C037DE812068A7E007F6471
:1001BE00CFCDCFCECCCE12068A8F38AE28AF297CCB
:1001CE00007D6412068A7E007F0ACFCDCFCECCCEC4
:1001DE0012068A8F31AE28AF297C007D0A12068A5C
:1001EE008D3A800C753A0B75310B75380B753B0BD0
:1001FE00AE26AF277C037DE812068A8F47AE26AF68
:10020E00277C037DE812068A7E007F64CFCDCFCE99
:10021E00CCCE12068A8F33AE26AF277C007D6412B9
:10022E00068A7E007F0ACFCDCFCECCCE12068A8F25
:10023E0039AE26AF277C007D0A12068A8D30020366
:10024E0007E52264026003020307E53E20E050AE9C
:10025E0026AF277C037DE812068A8F47AE26AF278E
:10026E007C037DE812068A7E007F64CFCDCFCECC94
:10027E00CE12068A8F33AE26AF277C007D6412061F
:10028E008A7E007F0ACFCDCFCECCCE12068A8F3992
:10029E00AE26AF277C007D0A12068A8D30800C7543
:1002AE00300B75390B75330B75470BAE28AF297CA8
:1002BE00037DE812068A8F3BAE28AF297C037DE8CA
:1002CE0012068A7E007F64CFCDCFCECCCE12068AA8
:1002DE008F38AE28AF297C007D6412068A7E007F9F
:1002EE000ACFCDCFCECCCE12068A8F31AE28AF2913
:1002FE007C007D0A12068A8D3A2003030203FE203B
:10030E0006030203FEE5372546FFE5363545FE7C3E
:10031E00007D051206788E2A8F2BAB07AA06E4F90C
:10032E00F87F407E427D0F120D908E3C8F3D7531D1
:10033E000A753B0A753802200956AE2AAF2B7C2768
:10034E007D1012068A8F3AAE2AAF2B7C277D1012B3
:10035E00068A7E037FE8CFCDCFCECCCE12068A8F13
:10036E0047AE2AAF2B7C007D6412068AAA04AB0529
:10037E007D647C00AF03AE0212068A8F337D0A7C49
:10038E0000AF03AE0212068A8F39AE2AAF2B80570A
:10039E0030095DAE3CAF3D7C277D1012068A8F3A48
:1003AE00AE3CAF3D7C277D1012068A7E037FE8CFE0
:1003BE00CDCFCECCCE12068A8F47AE3CAF3D7C0061
:1003CE007D6412068AAA04AB057D647C00AF03AE81
:1003DE000212068A8F337D0A7C00AF03AE0212062C
:1003EE008A8F39AE3CAF3D7C007D0A12068A8D3075
:1003FE00E4FF120F4E120F447526008F27AE267C97
:10040E00007D641206788E268F27AE28AF2912063D
:10041E00788E288F29C3E54A9529E5499528400508
:10042E00752301800EC3E54A9527E5499526500CA4
:10043E00752302853E2E853F3285402F3000652084
:10044E00042975330B75470B753A0B75310B7538DF
:10045E000B753B0BE523B40106E4F530F53922E5C7
:10046E00236402703FF53975300122E52F75F00ACD
:10047E0084F53BE52F75F00A8485F03875310AE571
:10048E003275F00A84F53AE53275F00A8485F04744
:10049E0075330AE52E75F00A84F539E52E75F00AE6
:0504AE008485F03022FE
:100D3E00120F64120EDB120FDB120FBBD2AFD2AB4F
:100D4E00120EFE7F03120F7D7549008F4AAC49AD1E
:100D5E004AE41205BEE4FBFA79B878411204B312E4
:100D6E0005F78E498F4AD3E54A9488E54994134096
:100D7E0006754913754A881207BB12001E1209F731
:020D8E0080BE25
:1004B300EC4D6011E8497017ED33EC3304600DE443
:1004C300FCFFFEFD22E933E8330470F802066312F1
:1004D300062E58046009E4CC2481500628500902F2
:1004E300066D28400302066AC0E0EB4A7044B980F7
:1004F30006D0E0FB020659EF4E701CBD8008EBFFEF
:10050300EAFEE9FD80EBE98DF0A4FEE5F002059C2F
:10051300E9CDF9EAFEEBFFEF89F0A4FCE5F0CE8923
:10052300F0A42EFFE435F0CD89F0A42DFEE435F0E0
:100533008067EF4E7005BD80D780C3EF8BF0A4AC0E
:10054300F0EE8BF0A42CFCE435F0F8EF8AF0A42C49
:10055300E5F038FCE433CB8DF0A42CFCE5F03BF85C
:10056300EE8AF0A42CFCE5F038F8E433CF89F0A44C
:100573002CFCE5F038CF3400CE89F0A42FFFE5F052
:100583003EFEE433C98DF0A42EFEE5F039CD8AF0AA
:10059300A42FFFE5F03EFEE43DFD33D0E0FB500722
:1005A3000BBB000F02066DEC2CFCEF33FFEE33FEAA
:0605B300ED33FD020645D8
:1005B90075F020800E75F010800575F0087D007EBD
:1005C900007F003392D530D5031206DFEC3340109B
:1005D900EF33FFEE33FEED33FDEC33FCD5F0ED22C6
:0E05E900E5F0247EA2D513CC92E7CDCEFF2202
:1005F700EDD2E7CD33EC3392D524814006E4FFFEFC
:10060700FDFC22FCE4CFCECDCC24E0501174FF805A
:10061700EDC3CC13CCCD13CDCE13CECF13CF0470F7
:07062700F030D5DE0206DF12
:10062E00E9D2E7C933E833F892D5EDD2E7CD33EC12
:07063E0033FC5002B2D5228B
:10064500EC30E7100FBF000C0EBE00080DBD000416
:100655000BEB6014A2D5EB13FCED92E7FD2274FFC2
:10066500FCFDFEFF22E480F8A2D574FF13FC7D801B
:03067500E480EF2F
:100B2A00020D3EE493A3F8E493A34003F68001F296
:100B3A0008DFF48029E493A3F85407240CC8C333CC
:100B4A00C4540F4420C8834004F456800146F6DF9B
:100B5A00E4800B0102040810204080900F21E47EFB
:100B6A00019360BCA3FF543F30E509541FFEE49390
:100B7A00A360010ECF54C025E060A840B8E493A357
:100B8A00FAE493A3F8E493A3C8C582C8CAC583CA82
:100B9A00F0A3C8C582C8CAC583CADFE9DEE780BE3A
:010F430000AD
:10067800EF8DF0A4A8F0CF8CF0A428CE8DF0A42E96
:02068800FE2250
:10068A00BC000BBE0029EF8DF084FFADF022E4CC54
:10069A00F875F008EF2FFFEE33FEEC33FCEE9DEC1D
:1006AA00984005FCEE9DFE0FD5F0E9E4CEFD22ED63
:1006BA00F8F5F0EE8420D21CFEADF075F008EF2FAD
:1006CA00FFED33FD4007985006D5F0F222C398FD9E
:0506DA000FD5F0EA223B
:100D9000C2D5E830E70FB2D5E4C39BFBE49AFAE48E
:100DA00099F9E498F8EC30E717B2D5120DC612079E
:100DB00029E4C39BFBE49AFAE499F9E498F88003E8
:100DC00012072930D50DE4C39FFFE49EFEE49DFD8C
:040DD000E49CFC2281
:0E06DF00C3E49FFFE49EFEE49DFDE49CFC222C
:1006ED0075F008758200EF2FFFEE33FECD33CDCCC4
:1006FD0033CCC58233C5829BED9AEC99E582984047
:10070D000CF582EE9BFEED9AFDEC99FC0FD5F0D623
:10071D00E4CEFBE4CDFAE4CCF9A88222B800C1B94D
:10072D000059BA002DEC8BF084CFCECDFCE5F0CB8B
:10073D00F97818EF2FFFEE33FEED33FDEC33FCEBC4
:10074D0033FB10D703994004EB99FB0FD8E5E4F97F
:10075D00FA227818EF2FFFEE33FEED33FDEC33FC6C
:10076D00C933C910D7059BE99A4007EC9BFCE99A60
:10077D00F90FD8E0E4C9FAE4CCFB2275F010EF2FA5
:10078D00FFEE33FEED33FDCC33CCC833C810D707A5
:10079D009BEC9AE899400AED9BFDEC9AFCE899F8E0
:0E07AD000FD5F0DAE4CDFBE4CCFAE4C8F92273
:00000001FF
