:0A040D00C0F9A4B0999282F8809023
:0D03C200C2B7D2B37F0A1203CFD2B77F0AB1
:0703CF00AE071FEE70FA22D9
:0D03F4001203C2C2B37F0A1203CFC2B722A8
:0E03E600C2B7C2B31203C6D2B37F0A0203CF5E
:10039000AD07E4FCC2B7ED25E0FD92B31203C60C35
:0803A000BC08F11203C2C2B750
:0103A8002232
:1003A900AB05AA071203F47F90120390AF02120360
:0903B90090AF031203900203E669
:10023600E50AB4080040030202FF900247F82828A6
:100246007302025F02027102029F0202C80202D218
:100256000202DC0202E60202F07580FFC29075809F
:1002660001D290C290AE0DAF0E80177580FFC2907E
:10027600758002D290C290AE0DAF0E7C007D0A1240
:1002860001D37C007D0A1201D3740D2DF58274040E
:100296003CF583E493F58080607580FFC29075809D
:1002A60004D290C290AE0DAF0E7C007D641201D3D5
:1002B600740D2FF58274043EF583E493547FF58024
:1002C60080377580FFC29075800880267580FFC2D2
:1002D60090758010801C7580FFC2907580208012FA
:1002E6007580FFC29075804080087580FFC290754A
:1002F6008080D290C2907580BF050AE50AC3940833
:060306004003E4F50A22A9
:03000B0002030CE1
:10030C00C0E0C0F0C083C082C0D075D000C000C0B7
:10031C0001C002C003C004C005C006C007758CF83C
:10032C00758A300508E508C394FA403A75080074DC
:10033C000A250CF50CE4350BF50BC394014006753E
:10034C000B00750C00AC0BAD0CE41201197BE17ABF
:10035C007A79F4783F12000E1201528E0D8F0EAD89
:10036C000C7F401203A9120236D007D006D005D05C
:10037C0004D003D002D001D000D0D0D082D083D012
:04038C00F0D0E0329B
:1003D600758901758CF8758A30D2AFD2A9D28C2274
:050003001203D680FE8F
:10000E00EC4D6011E8497017ED33EC3304600DE4EC
:10001E00FCFFFEFD22E933E8330470F80201BE1244
:10002E00018958046009E4CC248150062850090245
:10003E0001C82840030201C5C0E0EB4A7044B980F4
:10004E0006D0E0FB0201B4EF4E701CBD8008EBFF42
:10005E00EAFEE9FD80EBE98DF0A4FEE5F00200F783
:10006E00E9CDF9EAFEEBFFEF89F0A4FCE5F0CE89CD
:10007E00F0A42EFFE435F0CD89F0A42DFEE435F08A
:10008E008067EF4E7005BD80D780C3EF8BF0A4ACB8
:10009E00F0EE8BF0A42CFCE435F0F8EF8AF0A42CF3
:1000AE00E5F038FCE433CB8DF0A42CFCE5F03BF806
:1000BE00EE8AF0A42CFCE5F038F8E433CF89F0A4F6
:1000CE002CFCE5F038CF3400CE89F0A42FFFE5F0FC
:1000DE003EFEE433C98DF0A42EFEE5F039CD8AF054
:1000EE00A42FFFE5F03EFEE43DFD33D0E0FB5007CC
:1000FE000BBB000F0201C8EC2CFCEF33FFEE33FEFE
:06010E00ED33FD0201A02B
:1001140075F020800E75F010800575F0087D007E66
:10012400007F003392D530D503120228EC334010FF
:10013400EF33FFEE33FEED33FDEC33FCD5F0ED226F
:0E014400E5F0247EA2D513CC92E7CDCEFF22AB
:10015200EDD2E7CD33EC3392D524814006E4FFFEA5
:10016200FDFC22FCE4CFCECDCC24E0501174FF8004
:10017200EDC3CC13CCCD13CDCE13CECF13CF0470A1
:07018200F030D5DE02022877
:10018900E9D2E7C933E833F892D5EDD2E7CD33ECBC
:0701990033FC5002B2D52235
:1001A000EC30E7100FBF000C0EBE00080DBD0004C0
:1001B0000BEB6014A2D5EB13FCED92E7FD2274FF6C
:1001C000FCFDFEFF22E480F8A2D574FF13FC7D80C5
:0301D000E480EFD9
:03000000020401F6
:0C040100787FE4F6D8FD7581100200033E
:1001D300BC000BBE0029EF8DF084FFADF022E4CC10
:1001E300F875F008EF2FFFEE33FEEC33FCEE9DECD9
:1001F300984005FCEE9DFE0FD5F0E9E4CEFD22ED1F
:10020300F8F5F0EE8420D21CFEADF075F008EF2F68
:10021300FFED33FD4007985006D5F0F222C398FD59
:050223000FD5F0EA22F6
:0E022800C3E49FFFE49EFEE49DFDE49CFC22E7
:00000001FF
